{
  "_format": "hh-sol-artifact-1",
  "contractName": "EpicNFT",
  "sourceName": "contracts/EpicNFT.sol",
  "abi": [
    {
      "inputs": [],
      "stateMutability": "nonpayable",
      "type": "constructor"
    },
    {
      "anonymous": false,
      "inputs": [
        {
          "indexed": true,
          "internalType": "address",
          "name": "owner",
          "type": "address"
        },
        {
          "indexed": true,
          "internalType": "address",
          "name": "approved",
          "type": "address"
        },
        {
          "indexed": true,
          "internalType": "uint256",
          "name": "tokenId",
          "type": "uint256"
        }
      ],
      "name": "Approval",
      "type": "event"
    },
    {
      "anonymous": false,
      "inputs": [
        {
          "indexed": true,
          "internalType": "address",
          "name": "owner",
          "type": "address"
        },
        {
          "indexed": true,
          "internalType": "address",
          "name": "operator",
          "type": "address"
        },
        {
          "indexed": false,
          "internalType": "bool",
          "name": "approved",
          "type": "bool"
        }
      ],
      "name": "ApprovalForAll",
      "type": "event"
    },
    {
      "anonymous": false,
      "inputs": [
        {
          "indexed": true,
          "internalType": "address",
          "name": "from",
          "type": "address"
        },
        {
          "indexed": true,
          "internalType": "address",
          "name": "to",
          "type": "address"
        },
        {
          "indexed": true,
          "internalType": "uint256",
          "name": "tokenId",
          "type": "uint256"
        }
      ],
      "name": "Transfer",
      "type": "event"
    },
    {
      "inputs": [
        {
          "internalType": "address",
          "name": "to",
          "type": "address"
        },
        {
          "internalType": "uint256",
          "name": "tokenId",
          "type": "uint256"
        }
      ],
      "name": "approve",
      "outputs": [],
      "stateMutability": "nonpayable",
      "type": "function"
    },
    {
      "inputs": [
        {
          "internalType": "address",
          "name": "owner",
          "type": "address"
        }
      ],
      "name": "balanceOf",
      "outputs": [
        {
          "internalType": "uint256",
          "name": "",
          "type": "uint256"
        }
      ],
      "stateMutability": "view",
      "type": "function"
    },
    {
      "inputs": [],
      "name": "createEpicNFT",
      "outputs": [],
      "stateMutability": "nonpayable",
      "type": "function"
    },
    {
      "inputs": [
        {
          "internalType": "uint256",
          "name": "tokenId",
          "type": "uint256"
        }
      ],
      "name": "getApproved",
      "outputs": [
        {
          "internalType": "address",
          "name": "",
          "type": "address"
        }
      ],
      "stateMutability": "view",
      "type": "function"
    },
    {
      "inputs": [
        {
          "internalType": "address",
          "name": "owner",
          "type": "address"
        },
        {
          "internalType": "address",
          "name": "operator",
          "type": "address"
        }
      ],
      "name": "isApprovedForAll",
      "outputs": [
        {
          "internalType": "bool",
          "name": "",
          "type": "bool"
        }
      ],
      "stateMutability": "view",
      "type": "function"
    },
    {
      "inputs": [],
      "name": "name",
      "outputs": [
        {
          "internalType": "string",
          "name": "",
          "type": "string"
        }
      ],
      "stateMutability": "view",
      "type": "function"
    },
    {
      "inputs": [
        {
          "internalType": "uint256",
          "name": "tokenId",
          "type": "uint256"
        }
      ],
      "name": "ownerOf",
      "outputs": [
        {
          "internalType": "address",
          "name": "",
          "type": "address"
        }
      ],
      "stateMutability": "view",
      "type": "function"
    },
    {
      "inputs": [
        {
          "internalType": "address",
          "name": "from",
          "type": "address"
        },
        {
          "internalType": "address",
          "name": "to",
          "type": "address"
        },
        {
          "internalType": "uint256",
          "name": "tokenId",
          "type": "uint256"
        }
      ],
      "name": "safeTransferFrom",
      "outputs": [],
      "stateMutability": "nonpayable",
      "type": "function"
    },
    {
      "inputs": [
        {
          "internalType": "address",
          "name": "from",
          "type": "address"
        },
        {
          "internalType": "address",
          "name": "to",
          "type": "address"
        },
        {
          "internalType": "uint256",
          "name": "tokenId",
          "type": "uint256"
        },
        {
          "internalType": "bytes",
          "name": "data",
          "type": "bytes"
        }
      ],
      "name": "safeTransferFrom",
      "outputs": [],
      "stateMutability": "nonpayable",
      "type": "function"
    },
    {
      "inputs": [
        {
          "internalType": "address",
          "name": "operator",
          "type": "address"
        },
        {
          "internalType": "bool",
          "name": "approved",
          "type": "bool"
        }
      ],
      "name": "setApprovalForAll",
      "outputs": [],
      "stateMutability": "nonpayable",
      "type": "function"
    },
    {
      "inputs": [
        {
          "internalType": "bytes4",
          "name": "interfaceId",
          "type": "bytes4"
        }
      ],
      "name": "supportsInterface",
      "outputs": [
        {
          "internalType": "bool",
          "name": "",
          "type": "bool"
        }
      ],
      "stateMutability": "view",
      "type": "function"
    },
    {
      "inputs": [],
      "name": "symbol",
      "outputs": [
        {
          "internalType": "string",
          "name": "",
          "type": "string"
        }
      ],
      "stateMutability": "view",
      "type": "function"
    },
    {
      "inputs": [
        {
          "internalType": "uint256",
          "name": "_tokenId",
          "type": "uint256"
        }
      ],
      "name": "tokenURI",
      "outputs": [
        {
          "internalType": "string",
          "name": "",
          "type": "string"
        }
      ],
      "stateMutability": "view",
      "type": "function"
    },
    {
      "inputs": [
        {
          "internalType": "address",
          "name": "from",
          "type": "address"
        },
        {
          "internalType": "address",
          "name": "to",
          "type": "address"
        },
        {
          "internalType": "uint256",
          "name": "tokenId",
          "type": "uint256"
        }
      ],
      "name": "transferFrom",
      "outputs": [],
      "stateMutability": "nonpayable",
      "type": "function"
    }
  ],
  "bytecode": "0x60806040523480156200001157600080fd5b506040518060400160405280600781526020017f457069634e4654000000000000000000000000000000000000000000000000008152506040518060400160405280600481526020017f454e465400000000000000000000000000000000000000000000000000000000815250816000908051906020019062000096929190620001cf565b508060019080519060200190620000af929190620001cf565b505050620000fd6040518060400160405280600c81526020017f4e465420436f6e747261637400000000000000000000000000000000000000008152506200010360201b620009901760201c565b620003ac565b620001a3816040516024016200011a9190620002c0565b6040516020818303038152906040527f41304fac000000000000000000000000000000000000000000000000000000007bffffffffffffffffffffffffffffffffffffffffffffffffffffffff19166020820180517bffffffffffffffffffffffffffffffffffffffffffffffffffffffff8381831617835250505050620001a660201b60201c565b50565b60008151905060006a636f6e736f6c652e6c6f679050602083016000808483855afa5050505050565b828054620001dd9062000336565b90600052602060002090601f0160209004810192826200020157600085556200024d565b82601f106200021c57805160ff19168380011785556200024d565b828001600101855582156200024d579182015b828111156200024c5782518255916020019190600101906200022f565b5b5090506200025c919062000260565b5090565b5b808211156200027b57600081600090555060010162000261565b5090565b60006200028c82620002e4565b620002988185620002ef565b9350620002aa81856020860162000300565b620002b5816200039b565b840191505092915050565b60006020820190508181036000830152620002dc81846200027f565b905092915050565b600081519050919050565b600082825260208201905092915050565b60005b838110156200032057808201518184015260208101905062000303565b8381111562000330576000848401525b50505050565b600060028204905060018216806200034f57607f821691505b602082108114156200036657620003656200036c565b5b50919050565b7f4e487b7100000000000000000000000000000000000000000000000000000000600052602260045260246000fd5b6000601f19601f8301169050919050565b61249f80620003bc6000396000f3fe608060405234801561001057600080fd5b50600436106100ea5760003560e01c80636352211e1161008c578063a22cb46511610066578063a22cb46514610249578063b88d4fde14610265578063c87b56dd14610281578063e985e9c5146102b1576100ea565b80636352211e146101cb57806370a08231146101fb57806395d89b411461022b576100ea565b8063095ea7b3116100c8578063095ea7b31461016d57806323b872dd14610189578063340e1bed146101a557806342842e0e146101af576100ea565b806301ffc9a7146100ef57806306fdde031461011f578063081812fc1461013d575b600080fd5b610109600480360381019061010491906119b7565b6102e1565b6040516101169190611cb9565b60405180910390f35b6101276103c3565b6040516101349190611cd4565b60405180910390f35b61015760048036038101906101529190611a09565b610455565b6040516101649190611c52565b60405180910390f35b6101876004803603810190610182919061197b565b61049b565b005b6101a3600480360381019061019e9190611875565b6105b3565b005b6101ad610613565b005b6101c960048036038101906101c49190611875565b610642565b005b6101e560048036038101906101e09190611a09565b610662565b6040516101f29190611c52565b60405180910390f35b61021560048036038101906102109190611810565b6106e9565b6040516102229190611e56565b60405180910390f35b6102336107a1565b6040516102409190611cd4565b60405180910390f35b610263600480360381019061025e919061193f565b610833565b005b61027f600480360381019061027a91906118c4565b610849565b005b61029b60048036038101906102969190611a09565b6108ab565b6040516102a89190611cd4565b60405180910390f35b6102cb60048036038101906102c69190611839565b6108fc565b6040516102d89190611cb9565b60405180910390f35b60007f80ac58cd000000000000000000000000000000000000000000000000000000007bffffffffffffffffffffffffffffffffffffffffffffffffffffffff1916827bffffffffffffffffffffffffffffffffffffffffffffffffffffffff191614806103ac57507f5b5e139f000000000000000000000000000000000000000000000000000000007bffffffffffffffffffffffffffffffffffffffffffffffffffffffff1916827bffffffffffffffffffffffffffffffffffffffffffffffffffffffff1916145b806103bc57506103bb82610a29565b5b9050919050565b6060600080546103d29061203f565b80601f01602080910402602001604051908101604052809291908181526020018280546103fe9061203f565b801561044b5780601f106104205761010080835404028352916020019161044b565b820191906000526020600020905b81548152906001019060200180831161042e57829003601f168201915b5050505050905090565b600061046082610a93565b6004600083815260200190815260200160002060009054906101000a900473ffffffffffffffffffffffffffffffffffffffff169050919050565b60006104a682610662565b90508073ffffffffffffffffffffffffffffffffffffffff168373ffffffffffffffffffffffffffffffffffffffff161415610517576040517f08c379a000000000000000000000000000000000000000000000000000000000815260040161050e90611e16565b60405180910390fd5b8073ffffffffffffffffffffffffffffffffffffffff16610536610ade565b73ffffffffffffffffffffffffffffffffffffffff16148061056557506105648161055f610ade565b6108fc565b5b6105a4576040517f08c379a000000000000000000000000000000000000000000000000000000000815260040161059b90611e36565b60405180910390fd5b6105ae8383610ae6565b505050565b6105c46105be610ade565b82610b9f565b610603576040517f08c379a00000000000000000000000000000000000000000000000000000000081526004016105fa90611cf6565b60405180910390fd5b61060e838383610c34565b505050565b600061061f6006610f2e565b905061062b3382610f3c565b610634816108ab565b5061063f6006610f5a565b50565b61065d83838360405180602001604052806000815250610849565b505050565b60008061066e83610f70565b9050600073ffffffffffffffffffffffffffffffffffffffff168173ffffffffffffffffffffffffffffffffffffffff1614156106e0576040517f08c379a00000000000000000000000000000000000000000000000000000000081526004016106d790611df6565b60405180910390fd5b80915050919050565b60008073ffffffffffffffffffffffffffffffffffffffff168273ffffffffffffffffffffffffffffffffffffffff16141561075a576040517f08c379a000000000000000000000000000000000000000000000000000000000815260040161075190611db6565b60405180910390fd5b600360008373ffffffffffffffffffffffffffffffffffffffff1673ffffffffffffffffffffffffffffffffffffffff168152602001908152602001600020549050919050565b6060600180546107b09061203f565b80601f01602080910402602001604051908101604052809291908181526020018280546107dc9061203f565b80156108295780601f106107fe57610100808354040283529160200191610829565b820191906000526020600020905b81548152906001019060200180831161080c57829003601f168201915b5050505050905090565b61084561083e610ade565b8383610fad565b5050565b61085a610854610ade565b83610b9f565b610899576040517f08c379a000000000000000000000000000000000000000000000000000000000815260040161089090611cf6565b60405180910390fd5b6108a58484848461111a565b50505050565b60606108b682611176565b6108bf57600080fd5b6040518060400160405280601d81526020017f68747470733a2f2f6a736f6e6b65657065722e636f6d2f622f523730510000008152509050919050565b6000600560008473ffffffffffffffffffffffffffffffffffffffff1673ffffffffffffffffffffffffffffffffffffffff16815260200190815260200160002060008373ffffffffffffffffffffffffffffffffffffffff1673ffffffffffffffffffffffffffffffffffffffff16815260200190815260200160002060009054906101000a900460ff16905092915050565b610a26816040516024016109a49190611cd4565b6040516020818303038152906040527f41304fac000000000000000000000000000000000000000000000000000000007bffffffffffffffffffffffffffffffffffffffffffffffffffffffff19166020820180517bffffffffffffffffffffffffffffffffffffffffffffffffffffffff83818316178352505050506111b7565b50565b60007f01ffc9a7000000000000000000000000000000000000000000000000000000007bffffffffffffffffffffffffffffffffffffffffffffffffffffffff1916827bffffffffffffffffffffffffffffffffffffffffffffffffffffffff1916149050919050565b610a9c81611176565b610adb576040517f08c379a0000000000000000000000000000000000000000000000000000000008152600401610ad290611df6565b60405180910390fd5b50565b600033905090565b816004600083815260200190815260200160002060006101000a81548173ffffffffffffffffffffffffffffffffffffffff021916908373ffffffffffffffffffffffffffffffffffffffff160217905550808273ffffffffffffffffffffffffffffffffffffffff16610b5983610662565b73ffffffffffffffffffffffffffffffffffffffff167f8c5be1e5ebec7d5bd14f71427d1e84f3dd0314c0f7b2291e5b200ac8c7c3b92560405160405180910390a45050565b600080610bab83610662565b90508073ffffffffffffffffffffffffffffffffffffffff168473ffffffffffffffffffffffffffffffffffffffff161480610bed5750610bec81856108fc565b5b80610c2b57508373ffffffffffffffffffffffffffffffffffffffff16610c1384610455565b73ffffffffffffffffffffffffffffffffffffffff16145b91505092915050565b8273ffffffffffffffffffffffffffffffffffffffff16610c5482610662565b73ffffffffffffffffffffffffffffffffffffffff1614610caa576040517f08c379a0000000000000000000000000000000000000000000000000000000008152600401610ca190611d36565b60405180910390fd5b600073ffffffffffffffffffffffffffffffffffffffff168273ffffffffffffffffffffffffffffffffffffffff161415610d1a576040517f08c379a0000000000000000000000000000000000000000000000000000000008152600401610d1190611d76565b60405180910390fd5b610d2783838360016111e0565b8273ffffffffffffffffffffffffffffffffffffffff16610d4782610662565b73ffffffffffffffffffffffffffffffffffffffff1614610d9d576040517f08c379a0000000000000000000000000000000000000000000000000000000008152600401610d9490611d36565b60405180910390fd5b6004600082815260200190815260200160002060006101000a81549073ffffffffffffffffffffffffffffffffffffffff02191690556001600360008573ffffffffffffffffffffffffffffffffffffffff1673ffffffffffffffffffffffffffffffffffffffff168152602001908152602001600020600082825403925050819055506001600360008473ffffffffffffffffffffffffffffffffffffffff1673ffffffffffffffffffffffffffffffffffffffff16815260200190815260200160002060008282540192505081905550816002600083815260200190815260200160002060006101000a81548173ffffffffffffffffffffffffffffffffffffffff021916908373ffffffffffffffffffffffffffffffffffffffff160217905550808273ffffffffffffffffffffffffffffffffffffffff168473ffffffffffffffffffffffffffffffffffffffff167fddf252ad1be2c89b69c2b068fc378daa952ba7f163c4a11628f55a4df523b3ef60405160405180910390a4610f298383836001611306565b505050565b600081600001549050919050565b610f5682826040518060200160405280600081525061130c565b5050565b6001816000016000828254019250508190555050565b60006002600083815260200190815260200160002060009054906101000a900473ffffffffffffffffffffffffffffffffffffffff169050919050565b8173ffffffffffffffffffffffffffffffffffffffff168373ffffffffffffffffffffffffffffffffffffffff16141561101c576040517f08c379a000000000000000000000000000000000000000000000000000000000815260040161101390611d96565b60405180910390fd5b80600560008573ffffffffffffffffffffffffffffffffffffffff1673ffffffffffffffffffffffffffffffffffffffff16815260200190815260200160002060008473ffffffffffffffffffffffffffffffffffffffff1673ffffffffffffffffffffffffffffffffffffffff16815260200190815260200160002060006101000a81548160ff0219169083151502179055508173ffffffffffffffffffffffffffffffffffffffff168373ffffffffffffffffffffffffffffffffffffffff167f17307eab39ab6107e8899845ad3d59bd9653f200f220920489ca2b5937696c318360405161110d9190611cb9565b60405180910390a3505050565b611125848484610c34565b61113184848484611367565b611170576040517f08c379a000000000000000000000000000000000000000000000000000000000815260040161116790611d16565b60405180910390fd5b50505050565b60008073ffffffffffffffffffffffffffffffffffffffff1661119883610f70565b73ffffffffffffffffffffffffffffffffffffffff1614159050919050565b60008151905060006a636f6e736f6c652e6c6f679050602083016000808483855afa5050505050565b600181111561130057600073ffffffffffffffffffffffffffffffffffffffff168473ffffffffffffffffffffffffffffffffffffffff16146112745780600360008673ffffffffffffffffffffffffffffffffffffffff1673ffffffffffffffffffffffffffffffffffffffff168152602001908152602001600020600082825461126c9190611f55565b925050819055505b600073ffffffffffffffffffffffffffffffffffffffff168373ffffffffffffffffffffffffffffffffffffffff16146112ff5780600360008573ffffffffffffffffffffffffffffffffffffffff1673ffffffffffffffffffffffffffffffffffffffff16815260200190815260200160002060008282546112f79190611eff565b925050819055505b5b50505050565b50505050565b61131683836114fe565b6113236000848484611367565b611362576040517f08c379a000000000000000000000000000000000000000000000000000000000815260040161135990611d16565b60405180910390fd5b505050565b60006113888473ffffffffffffffffffffffffffffffffffffffff1661171c565b156114f1578373ffffffffffffffffffffffffffffffffffffffff1663150b7a026113b1610ade565b8786866040518563ffffffff1660e01b81526004016113d39493929190611c6d565b602060405180830381600087803b1580156113ed57600080fd5b505af192505050801561141e57506040513d601f19601f8201168201806040525081019061141b91906119e0565b60015b6114a1573d806000811461144e576040519150601f19603f3d011682016040523d82523d6000602084013e611453565b606091505b50600081511415611499576040517f08c379a000000000000000000000000000000000000000000000000000000000815260040161149090611d16565b60405180910390fd5b805181602001fd5b63150b7a0260e01b7bffffffffffffffffffffffffffffffffffffffffffffffffffffffff1916817bffffffffffffffffffffffffffffffffffffffffffffffffffffffff1916149150506114f6565b600190505b949350505050565b600073ffffffffffffffffffffffffffffffffffffffff168273ffffffffffffffffffffffffffffffffffffffff16141561156e576040517f08c379a000000000000000000000000000000000000000000000000000000000815260040161156590611dd6565b60405180910390fd5b61157781611176565b156115b7576040517f08c379a00000000000000000000000000000000000000000000000000000000081526004016115ae90611d56565b60405180910390fd5b6115c56000838360016111e0565b6115ce81611176565b1561160e576040517f08c379a000000000000000000000000000000000000000000000000000000000815260040161160590611d56565b60405180910390fd5b6001600360008473ffffffffffffffffffffffffffffffffffffffff1673ffffffffffffffffffffffffffffffffffffffff16815260200190815260200160002060008282540192505081905550816002600083815260200190815260200160002060006101000a81548173ffffffffffffffffffffffffffffffffffffffff021916908373ffffffffffffffffffffffffffffffffffffffff160217905550808273ffffffffffffffffffffffffffffffffffffffff16600073ffffffffffffffffffffffffffffffffffffffff167fddf252ad1be2c89b69c2b068fc378daa952ba7f163c4a11628f55a4df523b3ef60405160405180910390a4611718600083836001611306565b5050565b6000808273ffffffffffffffffffffffffffffffffffffffff163b119050919050565b600061175261174d84611e96565b611e71565b90508281526020810184848401111561176a57600080fd5b611775848285611ffd565b509392505050565b60008135905061178c8161240d565b92915050565b6000813590506117a181612424565b92915050565b6000813590506117b68161243b565b92915050565b6000815190506117cb8161243b565b92915050565b600082601f8301126117e257600080fd5b81356117f284826020860161173f565b91505092915050565b60008135905061180a81612452565b92915050565b60006020828403121561182257600080fd5b60006118308482850161177d565b91505092915050565b6000806040838503121561184c57600080fd5b600061185a8582860161177d565b925050602061186b8582860161177d565b9150509250929050565b60008060006060848603121561188a57600080fd5b60006118988682870161177d565b93505060206118a98682870161177d565b92505060406118ba868287016117fb565b9150509250925092565b600080600080608085870312156118da57600080fd5b60006118e88782880161177d565b94505060206118f98782880161177d565b935050604061190a878288016117fb565b925050606085013567ffffffffffffffff81111561192757600080fd5b611933878288016117d1565b91505092959194509250565b6000806040838503121561195257600080fd5b60006119608582860161177d565b925050602061197185828601611792565b9150509250929050565b6000806040838503121561198e57600080fd5b600061199c8582860161177d565b92505060206119ad858286016117fb565b9150509250929050565b6000602082840312156119c957600080fd5b60006119d7848285016117a7565b91505092915050565b6000602082840312156119f257600080fd5b6000611a00848285016117bc565b91505092915050565b600060208284031215611a1b57600080fd5b6000611a29848285016117fb565b91505092915050565b611a3b81611f89565b82525050565b611a4a81611f9b565b82525050565b6000611a5b82611ec7565b611a658185611edd565b9350611a7581856020860161200c565b611a7e8161212f565b840191505092915050565b6000611a9482611ed2565b611a9e8185611eee565b9350611aae81856020860161200c565b611ab78161212f565b840191505092915050565b6000611acf602d83611eee565b9150611ada82612140565b604082019050919050565b6000611af2603283611eee565b9150611afd8261218f565b604082019050919050565b6000611b15602583611eee565b9150611b20826121de565b604082019050919050565b6000611b38601c83611eee565b9150611b438261222d565b602082019050919050565b6000611b5b602483611eee565b9150611b6682612256565b604082019050919050565b6000611b7e601983611eee565b9150611b89826122a5565b602082019050919050565b6000611ba1602983611eee565b9150611bac826122ce565b604082019050919050565b6000611bc4602083611eee565b9150611bcf8261231d565b602082019050919050565b6000611be7601883611eee565b9150611bf282612346565b602082019050919050565b6000611c0a602183611eee565b9150611c158261236f565b604082019050919050565b6000611c2d603d83611eee565b9150611c38826123be565b604082019050919050565b611c4c81611ff3565b82525050565b6000602082019050611c676000830184611a32565b92915050565b6000608082019050611c826000830187611a32565b611c8f6020830186611a32565b611c9c6040830185611c43565b8181036060830152611cae8184611a50565b905095945050505050565b6000602082019050611cce6000830184611a41565b92915050565b60006020820190508181036000830152611cee8184611a89565b905092915050565b60006020820190508181036000830152611d0f81611ac2565b9050919050565b60006020820190508181036000830152611d2f81611ae5565b9050919050565b60006020820190508181036000830152611d4f81611b08565b9050919050565b60006020820190508181036000830152611d6f81611b2b565b9050919050565b60006020820190508181036000830152611d8f81611b4e565b9050919050565b60006020820190508181036000830152611daf81611b71565b9050919050565b60006020820190508181036000830152611dcf81611b94565b9050919050565b60006020820190508181036000830152611def81611bb7565b9050919050565b60006020820190508181036000830152611e0f81611bda565b9050919050565b60006020820190508181036000830152611e2f81611bfd565b9050919050565b60006020820190508181036000830152611e4f81611c20565b9050919050565b6000602082019050611e6b6000830184611c43565b92915050565b6000611e7b611e8c565b9050611e878282612071565b919050565b6000604051905090565b600067ffffffffffffffff821115611eb157611eb0612100565b5b611eba8261212f565b9050602081019050919050565b600081519050919050565b600081519050919050565b600082825260208201905092915050565b600082825260208201905092915050565b6000611f0a82611ff3565b9150611f1583611ff3565b9250827fffffffffffffffffffffffffffffffffffffffffffffffffffffffffffffffff03821115611f4a57611f496120a2565b5b828201905092915050565b6000611f6082611ff3565b9150611f6b83611ff3565b925082821015611f7e57611f7d6120a2565b5b828203905092915050565b6000611f9482611fd3565b9050919050565b60008115159050919050565b60007fffffffff0000000000000000000000000000000000000000000000000000000082169050919050565b600073ffffffffffffffffffffffffffffffffffffffff82169050919050565b6000819050919050565b82818337600083830152505050565b60005b8381101561202a57808201518184015260208101905061200f565b83811115612039576000848401525b50505050565b6000600282049050600182168061205757607f821691505b6020821081141561206b5761206a6120d1565b5b50919050565b61207a8261212f565b810181811067ffffffffffffffff8211171561209957612098612100565b5b80604052505050565b7f4e487b7100000000000000000000000000000000000000000000000000000000600052601160045260246000fd5b7f4e487b7100000000000000000000000000000000000000000000000000000000600052602260045260246000fd5b7f4e487b7100000000000000000000000000000000000000000000000000000000600052604160045260246000fd5b6000601f19601f8301169050919050565b7f4552433732313a2063616c6c6572206973206e6f7420746f6b656e206f776e6560008201527f72206f7220617070726f76656400000000000000000000000000000000000000602082015250565b7f4552433732313a207472616e7366657220746f206e6f6e20455243373231526560008201527f63656976657220696d706c656d656e7465720000000000000000000000000000602082015250565b7f4552433732313a207472616e736665722066726f6d20696e636f72726563742060008201527f6f776e6572000000000000000000000000000000000000000000000000000000602082015250565b7f4552433732313a20746f6b656e20616c7265616479206d696e74656400000000600082015250565b7f4552433732313a207472616e7366657220746f20746865207a65726f2061646460008201527f7265737300000000000000000000000000000000000000000000000000000000602082015250565b7f4552433732313a20617070726f766520746f2063616c6c657200000000000000600082015250565b7f4552433732313a2061646472657373207a65726f206973206e6f74206120766160008201527f6c6964206f776e65720000000000000000000000000000000000000000000000602082015250565b7f4552433732313a206d696e7420746f20746865207a65726f2061646472657373600082015250565b7f4552433732313a20696e76616c696420746f6b656e2049440000000000000000600082015250565b7f4552433732313a20617070726f76616c20746f2063757272656e74206f776e6560008201527f7200000000000000000000000000000000000000000000000000000000000000602082015250565b7f4552433732313a20617070726f76652063616c6c6572206973206e6f7420746f60008201527f6b656e206f776e6572206f7220617070726f76656420666f7220616c6c000000602082015250565b61241681611f89565b811461242157600080fd5b50565b61242d81611f9b565b811461243857600080fd5b50565b61244481611fa7565b811461244f57600080fd5b50565b61245b81611ff3565b811461246657600080fd5b5056fea264697066735822122034df1574aa4eec0c68478d4538cbebde079f8a2e86405e0f292c9e2c606a86f764736f6c63430008010033",
  "linkReferences": {},
  "deployedLinkReferences": {}
}