{
  "_format": "hh-sol-artifact-1",
  "contractName": "EpicNFT",
  "sourceName": "contracts/EpicNFT.sol",
  "abi": [
    {
      "inputs": [],
      "stateMutability": "nonpayable",
      "type": "constructor"
    },
    {
      "anonymous": false,
      "inputs": [
        {
          "indexed": true,
          "internalType": "address",
          "name": "owner",
          "type": "address"
        },
        {
          "indexed": true,
          "internalType": "address",
          "name": "approved",
          "type": "address"
        },
        {
          "indexed": true,
          "internalType": "uint256",
          "name": "tokenId",
          "type": "uint256"
        }
      ],
      "name": "Approval",
      "type": "event"
    },
    {
      "anonymous": false,
      "inputs": [
        {
          "indexed": true,
          "internalType": "address",
          "name": "owner",
          "type": "address"
        },
        {
          "indexed": true,
          "internalType": "address",
          "name": "operator",
          "type": "address"
        },
        {
          "indexed": false,
          "internalType": "bool",
          "name": "approved",
          "type": "bool"
        }
      ],
      "name": "ApprovalForAll",
      "type": "event"
    },
    {
      "anonymous": false,
      "inputs": [
        {
          "indexed": true,
          "internalType": "address",
          "name": "from",
          "type": "address"
        },
        {
          "indexed": true,
          "internalType": "address",
          "name": "to",
          "type": "address"
        },
        {
          "indexed": true,
          "internalType": "uint256",
          "name": "tokenId",
          "type": "uint256"
        }
      ],
      "name": "Transfer",
      "type": "event"
    },
    {
      "inputs": [
        {
          "internalType": "address",
          "name": "to",
          "type": "address"
        },
        {
          "internalType": "uint256",
          "name": "tokenId",
          "type": "uint256"
        }
      ],
      "name": "approve",
      "outputs": [],
      "stateMutability": "nonpayable",
      "type": "function"
    },
    {
      "inputs": [
        {
          "internalType": "address",
          "name": "owner",
          "type": "address"
        }
      ],
      "name": "balanceOf",
      "outputs": [
        {
          "internalType": "uint256",
          "name": "",
          "type": "uint256"
        }
      ],
      "stateMutability": "view",
      "type": "function"
    },
    {
      "inputs": [],
      "name": "createEpicNFT",
      "outputs": [],
      "stateMutability": "nonpayable",
      "type": "function"
    },
    {
      "inputs": [
        {
          "internalType": "uint256",
          "name": "tokenId",
          "type": "uint256"
        }
      ],
      "name": "getApproved",
      "outputs": [
        {
          "internalType": "address",
          "name": "",
          "type": "address"
        }
      ],
      "stateMutability": "view",
      "type": "function"
    },
    {
      "inputs": [
        {
          "internalType": "address",
          "name": "owner",
          "type": "address"
        },
        {
          "internalType": "address",
          "name": "operator",
          "type": "address"
        }
      ],
      "name": "isApprovedForAll",
      "outputs": [
        {
          "internalType": "bool",
          "name": "",
          "type": "bool"
        }
      ],
      "stateMutability": "view",
      "type": "function"
    },
    {
      "inputs": [],
      "name": "name",
      "outputs": [
        {
          "internalType": "string",
          "name": "",
          "type": "string"
        }
      ],
      "stateMutability": "view",
      "type": "function"
    },
    {
      "inputs": [
        {
          "internalType": "uint256",
          "name": "tokenId",
          "type": "uint256"
        }
      ],
      "name": "ownerOf",
      "outputs": [
        {
          "internalType": "address",
          "name": "",
          "type": "address"
        }
      ],
      "stateMutability": "view",
      "type": "function"
    },
    {
      "inputs": [
        {
          "internalType": "address",
          "name": "from",
          "type": "address"
        },
        {
          "internalType": "address",
          "name": "to",
          "type": "address"
        },
        {
          "internalType": "uint256",
          "name": "tokenId",
          "type": "uint256"
        }
      ],
      "name": "safeTransferFrom",
      "outputs": [],
      "stateMutability": "nonpayable",
      "type": "function"
    },
    {
      "inputs": [
        {
          "internalType": "address",
          "name": "from",
          "type": "address"
        },
        {
          "internalType": "address",
          "name": "to",
          "type": "address"
        },
        {
          "internalType": "uint256",
          "name": "tokenId",
          "type": "uint256"
        },
        {
          "internalType": "bytes",
          "name": "data",
          "type": "bytes"
        }
      ],
      "name": "safeTransferFrom",
      "outputs": [],
      "stateMutability": "nonpayable",
      "type": "function"
    },
    {
      "inputs": [
        {
          "internalType": "address",
          "name": "operator",
          "type": "address"
        },
        {
          "internalType": "bool",
          "name": "approved",
          "type": "bool"
        }
      ],
      "name": "setApprovalForAll",
      "outputs": [],
      "stateMutability": "nonpayable",
      "type": "function"
    },
    {
      "inputs": [
        {
          "internalType": "bytes4",
          "name": "interfaceId",
          "type": "bytes4"
        }
      ],
      "name": "supportsInterface",
      "outputs": [
        {
          "internalType": "bool",
          "name": "",
          "type": "bool"
        }
      ],
      "stateMutability": "view",
      "type": "function"
    },
    {
      "inputs": [],
      "name": "symbol",
      "outputs": [
        {
          "internalType": "string",
          "name": "",
          "type": "string"
        }
      ],
      "stateMutability": "view",
      "type": "function"
    },
    {
      "inputs": [
        {
          "internalType": "uint256",
          "name": "_tokenId",
          "type": "uint256"
        }
      ],
      "name": "tokenURI",
      "outputs": [
        {
          "internalType": "string",
          "name": "",
          "type": "string"
        }
      ],
      "stateMutability": "view",
      "type": "function"
    },
    {
      "inputs": [
        {
          "internalType": "address",
          "name": "from",
          "type": "address"
        },
        {
          "internalType": "address",
          "name": "to",
          "type": "address"
        },
        {
          "internalType": "uint256",
          "name": "tokenId",
          "type": "uint256"
        }
      ],
      "name": "transferFrom",
      "outputs": [],
      "stateMutability": "nonpayable",
      "type": "function"
    }
  ],
  "bytecode": "0x60806040523480156200001157600080fd5b506040518060400160405280600781526020017f457069634e4654000000000000000000000000000000000000000000000000008152506040518060400160405280600481526020017f454e465400000000000000000000000000000000000000000000000000000000815250816000908051906020019062000096929190620001cf565b508060019080519060200190620000af929190620001cf565b505050620000fd6040518060400160405280600c81526020017f4e465420436f6e747261637400000000000000000000000000000000000000008152506200010360201b620009781760201c565b620003ac565b620001a3816040516024016200011a9190620002c0565b6040516020818303038152906040527f41304fac000000000000000000000000000000000000000000000000000000007bffffffffffffffffffffffffffffffffffffffffffffffffffffffff19166020820180517bffffffffffffffffffffffffffffffffffffffffffffffffffffffff8381831617835250505050620001a660201b60201c565b50565b60008151905060006a636f6e736f6c652e6c6f679050602083016000808483855afa5050505050565b828054620001dd9062000336565b90600052602060002090601f0160209004810192826200020157600085556200024d565b82601f106200021c57805160ff19168380011785556200024d565b828001600101855582156200024d579182015b828111156200024c5782518255916020019190600101906200022f565b5b5090506200025c919062000260565b5090565b5b808211156200027b57600081600090555060010162000261565b5090565b60006200028c82620002e4565b620002988185620002ef565b9350620002aa81856020860162000300565b620002b5816200039b565b840191505092915050565b60006020820190508181036000830152620002dc81846200027f565b905092915050565b600081519050919050565b600082825260208201905092915050565b60005b838110156200032057808201518184015260208101905062000303565b8381111562000330576000848401525b50505050565b600060028204905060018216806200034f57607f821691505b602082108114156200036657620003656200036c565b5b50919050565b7f4e487b7100000000000000000000000000000000000000000000000000000000600052602260045260246000fd5b6000601f19601f8301169050919050565b6128ed80620003bc6000396000f3fe608060405234801561001057600080fd5b50600436106100ea5760003560e01c80636352211e1161008c578063a22cb46511610066578063a22cb46514610249578063b88d4fde14610265578063c87b56dd14610281578063e985e9c5146102b1576100ea565b80636352211e146101cb57806370a08231146101fb57806395d89b411461022b576100ea565b8063095ea7b3116100c8578063095ea7b31461016d57806323b872dd14610189578063340e1bed146101a557806342842e0e146101af576100ea565b806301ffc9a7146100ef57806306fdde031461011f578063081812fc1461013d575b600080fd5b6101096004803603810190610104919061199f565b6102e1565b6040516101169190611d09565b60405180910390f35b6101276103c3565b6040516101349190611d24565b60405180910390f35b610157600480360381019061015291906119f1565b610455565b6040516101649190611ca2565b60405180910390f35b61018760048036038101906101829190611963565b61049b565b005b6101a3600480360381019061019e919061185d565b6105b3565b005b6101ad610613565b005b6101c960048036038101906101c4919061185d565b610642565b005b6101e560048036038101906101e091906119f1565b610662565b6040516101f29190611ca2565b60405180910390f35b610215600480360381019061021091906117f8565b6106e9565b6040516102229190611ea6565b60405180910390f35b6102336107a1565b6040516102409190611d24565b60405180910390f35b610263600480360381019061025e9190611927565b610833565b005b61027f600480360381019061027a91906118ac565b610849565b005b61029b600480360381019061029691906119f1565b6108ab565b6040516102a89190611d24565b60405180910390f35b6102cb60048036038101906102c69190611821565b6108e4565b6040516102d89190611d09565b60405180910390f35b60007f80ac58cd000000000000000000000000000000000000000000000000000000007bffffffffffffffffffffffffffffffffffffffffffffffffffffffff1916827bffffffffffffffffffffffffffffffffffffffffffffffffffffffff191614806103ac57507f5b5e139f000000000000000000000000000000000000000000000000000000007bffffffffffffffffffffffffffffffffffffffffffffffffffffffff1916827bffffffffffffffffffffffffffffffffffffffffffffffffffffffff1916145b806103bc57506103bb82610a11565b5b9050919050565b6060600080546103d29061209a565b80601f01602080910402602001604051908101604052809291908181526020018280546103fe9061209a565b801561044b5780601f106104205761010080835404028352916020019161044b565b820191906000526020600020905b81548152906001019060200180831161042e57829003601f168201915b5050505050905090565b600061046082610a7b565b6004600083815260200190815260200160002060009054906101000a900473ffffffffffffffffffffffffffffffffffffffff169050919050565b60006104a682610662565b90508073ffffffffffffffffffffffffffffffffffffffff168373ffffffffffffffffffffffffffffffffffffffff161415610517576040517f08c379a000000000000000000000000000000000000000000000000000000000815260040161050e90611e66565b60405180910390fd5b8073ffffffffffffffffffffffffffffffffffffffff16610536610ac6565b73ffffffffffffffffffffffffffffffffffffffff16148061056557506105648161055f610ac6565b6108e4565b5b6105a4576040517f08c379a000000000000000000000000000000000000000000000000000000000815260040161059b90611e86565b60405180910390fd5b6105ae8383610ace565b505050565b6105c46105be610ac6565b82610b87565b610603576040517f08c379a00000000000000000000000000000000000000000000000000000000081526004016105fa90611d46565b60405180910390fd5b61060e838383610c1c565b505050565b600061061f6006610f16565b905061062b3382610f24565b610634816108ab565b5061063f6006610f42565b50565b61065d83838360405180602001604052806000815250610849565b505050565b60008061066e83610f58565b9050600073ffffffffffffffffffffffffffffffffffffffff168173ffffffffffffffffffffffffffffffffffffffff1614156106e0576040517f08c379a00000000000000000000000000000000000000000000000000000000081526004016106d790611e46565b60405180910390fd5b80915050919050565b60008073ffffffffffffffffffffffffffffffffffffffff168273ffffffffffffffffffffffffffffffffffffffff16141561075a576040517f08c379a000000000000000000000000000000000000000000000000000000000815260040161075190611e06565b60405180910390fd5b600360008373ffffffffffffffffffffffffffffffffffffffff1673ffffffffffffffffffffffffffffffffffffffff168152602001908152602001600020549050919050565b6060600180546107b09061209a565b80601f01602080910402602001604051908101604052809291908181526020018280546107dc9061209a565b80156108295780601f106107fe57610100808354040283529160200191610829565b820191906000526020600020905b81548152906001019060200180831161080c57829003601f168201915b5050505050905090565b61084561083e610ac6565b8383610f95565b5050565b61085a610854610ac6565b83610b87565b610899576040517f08c379a000000000000000000000000000000000000000000000000000000000815260040161089090611d46565b60405180910390fd5b6108a584848484611102565b50505050565b60606108b68261115e565b6108bf57600080fd5b6040516020016108ce90611c82565b6040516020818303038152906040529050919050565b6000600560008473ffffffffffffffffffffffffffffffffffffffff1673ffffffffffffffffffffffffffffffffffffffff16815260200190815260200160002060008373ffffffffffffffffffffffffffffffffffffffff1673ffffffffffffffffffffffffffffffffffffffff16815260200190815260200160002060009054906101000a900460ff16905092915050565b610a0e8160405160240161098c9190611d24565b6040516020818303038152906040527f41304fac000000000000000000000000000000000000000000000000000000007bffffffffffffffffffffffffffffffffffffffffffffffffffffffff19166020820180517bffffffffffffffffffffffffffffffffffffffffffffffffffffffff838183161783525050505061119f565b50565b60007f01ffc9a7000000000000000000000000000000000000000000000000000000007bffffffffffffffffffffffffffffffffffffffffffffffffffffffff1916827bffffffffffffffffffffffffffffffffffffffffffffffffffffffff1916149050919050565b610a848161115e565b610ac3576040517f08c379a0000000000000000000000000000000000000000000000000000000008152600401610aba90611e46565b60405180910390fd5b50565b600033905090565b816004600083815260200190815260200160002060006101000a81548173ffffffffffffffffffffffffffffffffffffffff021916908373ffffffffffffffffffffffffffffffffffffffff160217905550808273ffffffffffffffffffffffffffffffffffffffff16610b4183610662565b73ffffffffffffffffffffffffffffffffffffffff167f8c5be1e5ebec7d5bd14f71427d1e84f3dd0314c0f7b2291e5b200ac8c7c3b92560405160405180910390a45050565b600080610b9383610662565b90508073ffffffffffffffffffffffffffffffffffffffff168473ffffffffffffffffffffffffffffffffffffffff161480610bd55750610bd481856108e4565b5b80610c1357508373ffffffffffffffffffffffffffffffffffffffff16610bfb84610455565b73ffffffffffffffffffffffffffffffffffffffff16145b91505092915050565b8273ffffffffffffffffffffffffffffffffffffffff16610c3c82610662565b73ffffffffffffffffffffffffffffffffffffffff1614610c92576040517f08c379a0000000000000000000000000000000000000000000000000000000008152600401610c8990611d86565b60405180910390fd5b600073ffffffffffffffffffffffffffffffffffffffff168273ffffffffffffffffffffffffffffffffffffffff161415610d02576040517f08c379a0000000000000000000000000000000000000000000000000000000008152600401610cf990611dc6565b60405180910390fd5b610d0f83838360016111c8565b8273ffffffffffffffffffffffffffffffffffffffff16610d2f82610662565b73ffffffffffffffffffffffffffffffffffffffff1614610d85576040517f08c379a0000000000000000000000000000000000000000000000000000000008152600401610d7c90611d86565b60405180910390fd5b6004600082815260200190815260200160002060006101000a81549073ffffffffffffffffffffffffffffffffffffffff02191690556001600360008573ffffffffffffffffffffffffffffffffffffffff1673ffffffffffffffffffffffffffffffffffffffff168152602001908152602001600020600082825403925050819055506001600360008473ffffffffffffffffffffffffffffffffffffffff1673ffffffffffffffffffffffffffffffffffffffff16815260200190815260200160002060008282540192505081905550816002600083815260200190815260200160002060006101000a81548173ffffffffffffffffffffffffffffffffffffffff021916908373ffffffffffffffffffffffffffffffffffffffff160217905550808273ffffffffffffffffffffffffffffffffffffffff168473ffffffffffffffffffffffffffffffffffffffff167fddf252ad1be2c89b69c2b068fc378daa952ba7f163c4a11628f55a4df523b3ef60405160405180910390a4610f1183838360016112ee565b505050565b600081600001549050919050565b610f3e8282604051806020016040528060008152506112f4565b5050565b6001816000016000828254019250508190555050565b60006002600083815260200190815260200160002060009054906101000a900473ffffffffffffffffffffffffffffffffffffffff169050919050565b8173ffffffffffffffffffffffffffffffffffffffff168373ffffffffffffffffffffffffffffffffffffffff161415611004576040517f08c379a0000000000000000000000000000000000000000000000000000000008152600401610ffb90611de6565b60405180910390fd5b80600560008573ffffffffffffffffffffffffffffffffffffffff1673ffffffffffffffffffffffffffffffffffffffff16815260200190815260200160002060008473ffffffffffffffffffffffffffffffffffffffff1673ffffffffffffffffffffffffffffffffffffffff16815260200190815260200160002060006101000a81548160ff0219169083151502179055508173ffffffffffffffffffffffffffffffffffffffff168373ffffffffffffffffffffffffffffffffffffffff167f17307eab39ab6107e8899845ad3d59bd9653f200f220920489ca2b5937696c31836040516110f59190611d09565b60405180910390a3505050565b61110d848484610c1c565b6111198484848461134f565b611158576040517f08c379a000000000000000000000000000000000000000000000000000000000815260040161114f90611d66565b60405180910390fd5b50505050565b60008073ffffffffffffffffffffffffffffffffffffffff1661118083610f58565b73ffffffffffffffffffffffffffffffffffffffff1614159050919050565b60008151905060006a636f6e736f6c652e6c6f679050602083016000808483855afa5050505050565b60018111156112e857600073ffffffffffffffffffffffffffffffffffffffff168473ffffffffffffffffffffffffffffffffffffffff161461125c5780600360008673ffffffffffffffffffffffffffffffffffffffff1673ffffffffffffffffffffffffffffffffffffffff16815260200190815260200160002060008282546112549190611fb0565b925050819055505b600073ffffffffffffffffffffffffffffffffffffffff168373ffffffffffffffffffffffffffffffffffffffff16146112e75780600360008573ffffffffffffffffffffffffffffffffffffffff1673ffffffffffffffffffffffffffffffffffffffff16815260200190815260200160002060008282546112df9190611f5a565b925050819055505b5b50505050565b50505050565b6112fe83836114e6565b61130b600084848461134f565b61134a576040517f08c379a000000000000000000000000000000000000000000000000000000000815260040161134190611d66565b60405180910390fd5b505050565b60006113708473ffffffffffffffffffffffffffffffffffffffff16611704565b156114d9578373ffffffffffffffffffffffffffffffffffffffff1663150b7a02611399610ac6565b8786866040518563ffffffff1660e01b81526004016113bb9493929190611cbd565b602060405180830381600087803b1580156113d557600080fd5b505af192505050801561140657506040513d601f19601f8201168201806040525081019061140391906119c8565b60015b611489573d8060008114611436576040519150601f19603f3d011682016040523d82523d6000602084013e61143b565b606091505b50600081511415611481576040517f08c379a000000000000000000000000000000000000000000000000000000000815260040161147890611d66565b60405180910390fd5b805181602001fd5b63150b7a0260e01b7bffffffffffffffffffffffffffffffffffffffffffffffffffffffff1916817bffffffffffffffffffffffffffffffffffffffffffffffffffffffff1916149150506114de565b600190505b949350505050565b600073ffffffffffffffffffffffffffffffffffffffff168273ffffffffffffffffffffffffffffffffffffffff161415611556576040517f08c379a000000000000000000000000000000000000000000000000000000000815260040161154d90611e26565b60405180910390fd5b61155f8161115e565b1561159f576040517f08c379a000000000000000000000000000000000000000000000000000000000815260040161159690611da6565b60405180910390fd5b6115ad6000838360016111c8565b6115b68161115e565b156115f6576040517f08c379a00000000000000000000000000000000000000000000000000000000081526004016115ed90611da6565b60405180910390fd5b6001600360008473ffffffffffffffffffffffffffffffffffffffff1673ffffffffffffffffffffffffffffffffffffffff16815260200190815260200160002060008282540192505081905550816002600083815260200190815260200160002060006101000a81548173ffffffffffffffffffffffffffffffffffffffff021916908373ffffffffffffffffffffffffffffffffffffffff160217905550808273ffffffffffffffffffffffffffffffffffffffff16600073ffffffffffffffffffffffffffffffffffffffff167fddf252ad1be2c89b69c2b068fc378daa952ba7f163c4a11628f55a4df523b3ef60405160405180910390a46117006000838360016112ee565b5050565b6000808273ffffffffffffffffffffffffffffffffffffffff163b119050919050565b600061173a61173584611ee6565b611ec1565b90508281526020810184848401111561175257600080fd5b61175d848285612058565b509392505050565b6000813590506117748161285b565b92915050565b60008135905061178981612872565b92915050565b60008135905061179e81612889565b92915050565b6000815190506117b381612889565b92915050565b600082601f8301126117ca57600080fd5b81356117da848260208601611727565b91505092915050565b6000813590506117f2816128a0565b92915050565b60006020828403121561180a57600080fd5b600061181884828501611765565b91505092915050565b6000806040838503121561183457600080fd5b600061184285828601611765565b925050602061185385828601611765565b9150509250929050565b60008060006060848603121561187257600080fd5b600061188086828701611765565b935050602061189186828701611765565b92505060406118a2868287016117e3565b9150509250925092565b600080600080608085870312156118c257600080fd5b60006118d087828801611765565b94505060206118e187828801611765565b93505060406118f2878288016117e3565b925050606085013567ffffffffffffffff81111561190f57600080fd5b61191b878288016117b9565b91505092959194509250565b6000806040838503121561193a57600080fd5b600061194885828601611765565b92505060206119598582860161177a565b9150509250929050565b6000806040838503121561197657600080fd5b600061198485828601611765565b9250506020611995858286016117e3565b9150509250929050565b6000602082840312156119b157600080fd5b60006119bf8482850161178f565b91505092915050565b6000602082840312156119da57600080fd5b60006119e8848285016117a4565b91505092915050565b600060208284031215611a0357600080fd5b6000611a11848285016117e3565b91505092915050565b611a2381611fe4565b82525050565b611a3281611ff6565b82525050565b6000611a4382611f17565b611a4d8185611f2d565b9350611a5d818560208601612067565b611a668161218a565b840191505092915050565b6000611a7c82611f22565b611a868185611f3e565b9350611a96818560208601612067565b611a9f8161218a565b840191505092915050565b6000611ab861032083611f4f565b9150611ac38261219b565b61032082019050919050565b6000611adc602d83611f3e565b9150611ae782612565565b604082019050919050565b6000611aff603283611f3e565b9150611b0a826125b4565b604082019050919050565b6000611b22602583611f3e565b9150611b2d82612603565b604082019050919050565b6000611b45601c83611f3e565b9150611b5082612652565b602082019050919050565b6000611b68602483611f3e565b9150611b738261267b565b604082019050919050565b6000611b8b601983611f3e565b9150611b96826126ca565b602082019050919050565b6000611bae602983611f3e565b9150611bb9826126f3565b604082019050919050565b6000611bd1602083611f3e565b9150611bdc82612742565b602082019050919050565b6000611bf4601883611f3e565b9150611bff8261276b565b602082019050919050565b6000611c17602183611f3e565b9150611c2282612794565b604082019050919050565b6000611c3a601d83611f4f565b9150611c45826127e3565b601d82019050919050565b6000611c5d603d83611f3e565b9150611c688261280c565b604082019050919050565b611c7c8161204e565b82525050565b6000611c8d82611c2d565b9150611c9882611aaa565b9150819050919050565b6000602082019050611cb76000830184611a1a565b92915050565b6000608082019050611cd26000830187611a1a565b611cdf6020830186611a1a565b611cec6040830185611c73565b8181036060830152611cfe8184611a38565b905095945050505050565b6000602082019050611d1e6000830184611a29565b92915050565b60006020820190508181036000830152611d3e8184611a71565b905092915050565b60006020820190508181036000830152611d5f81611acf565b9050919050565b60006020820190508181036000830152611d7f81611af2565b9050919050565b60006020820190508181036000830152611d9f81611b15565b9050919050565b60006020820190508181036000830152611dbf81611b38565b9050919050565b60006020820190508181036000830152611ddf81611b5b565b9050919050565b60006020820190508181036000830152611dff81611b7e565b9050919050565b60006020820190508181036000830152611e1f81611ba1565b9050919050565b60006020820190508181036000830152611e3f81611bc4565b9050919050565b60006020820190508181036000830152611e5f81611be7565b9050919050565b60006020820190508181036000830152611e7f81611c0a565b9050919050565b60006020820190508181036000830152611e9f81611c50565b9050919050565b6000602082019050611ebb6000830184611c73565b92915050565b6000611ecb611edc565b9050611ed782826120cc565b919050565b6000604051905090565b600067ffffffffffffffff821115611f0157611f0061215b565b5b611f0a8261218a565b9050602081019050919050565b600081519050919050565b600081519050919050565b600082825260208201905092915050565b600082825260208201905092915050565b600081905092915050565b6000611f658261204e565b9150611f708361204e565b9250827fffffffffffffffffffffffffffffffffffffffffffffffffffffffffffffffff03821115611fa557611fa46120fd565b5b828201905092915050565b6000611fbb8261204e565b9150611fc68361204e565b925082821015611fd957611fd86120fd565b5b828203905092915050565b6000611fef8261202e565b9050919050565b60008115159050919050565b60007fffffffff0000000000000000000000000000000000000000000000000000000082169050919050565b600073ffffffffffffffffffffffffffffffffffffffff82169050919050565b6000819050919050565b82818337600083830152505050565b60005b8381101561208557808201518184015260208101905061206a565b83811115612094576000848401525b50505050565b600060028204905060018216806120b257607f821691505b602082108114156120c6576120c561212c565b5b50919050565b6120d58261218a565b810181811067ffffffffffffffff821117156120f4576120f361215b565b5b80604052505050565b7f4e487b7100000000000000000000000000000000000000000000000000000000600052601160045260246000fd5b7f4e487b7100000000000000000000000000000000000000000000000000000000600052602260045260246000fd5b7f4e487b7100000000000000000000000000000000000000000000000000000000600052604160045260246000fd5b6000601f19601f8301169050919050565b7f65794a755957316c496a6f695258427059307876636d52495957316964584a6e60008201527f5a5849694c434a6b5a584e6a636d6c7764476c7662694936496b46754945354760208201527f5643426d636d39744948526f5a53426f6157646f62486b6759574e6a6247467060408201527f6257566b49484e78645746795a53426a623278735a574e30615739754969776960608201527f615731685a3255694f694a6b595852684f6d6c745957646c4c334e325a79743460808201527f62577737596d467a5a5459304c464249546a4a6165554930596c643464574e3660a08201527f4d476c685346497759305276646b777a5a444e6b6554557a54586b31646d4e7460c08201527f59335a4e616b463354554d35656d527459326c4a53454a35576c684f62474e7560e08201527f576d785257453533576c644f4d465674526a4268567a67355357356f546d46586101008201527f4e56705556327831535563786246705955576c4a53467077576c686b5132497a6101208201527f5a7a6c4a616b466e54554e42656b35555157644e656c563353576f3053306c446101408201527f5157644a524868365a456873633170554e48565a62555a36576c4e434e306c486101608201527f576e4269523363325355686b62324659556d785065554a74596a49314d4578586101808201527f576d68695632787a5a5652765a324d79566e6c6856316b3353556461646d4a756101a08201527f5558526a4d6d7732576c52765a303155556e646c52484e6e5a6c5233646d4d7a6101c08201527f556a56695231557251326c425a306c445154686a62565a715a454e434d3246586101e08201527f556a42685244427054565242643070545357646852315a77576a4a6f4d4642546102008201527f5358684e5245467353576c436257465865484e5155307070596b6447616d46356102208201527f5357644d656a524c53554e425a306c4565444261574767775355686e4f556c716102408201527f5658644b55306c6e5a565177615535555157784a61554a71596b6447656d4e366102608201527f4d476c5a62555a36576c4e4a5a3170484f585268567a566f596d355264466c746102808201527f526e706156336877596d31564f556c744d58426152314a7a576c4e4a5a3252486102a08201527f566a526b517a466f596d314f6232497a53546c4a62544677576b6453633170546102c08201527f5353745357454a7757544234646d4e74556b6c5a567a46705a46684b626c70596102e08201527f5354684d4d314a735a5568524b304e7164335a6a4d3170755547633950534a3961030082015250565b7f4552433732313a2063616c6c6572206973206e6f7420746f6b656e206f776e6560008201527f72206f7220617070726f76656400000000000000000000000000000000000000602082015250565b7f4552433732313a207472616e7366657220746f206e6f6e20455243373231526560008201527f63656976657220696d706c656d656e7465720000000000000000000000000000602082015250565b7f4552433732313a207472616e736665722066726f6d20696e636f72726563742060008201527f6f776e6572000000000000000000000000000000000000000000000000000000602082015250565b7f4552433732313a20746f6b656e20616c7265616479206d696e74656400000000600082015250565b7f4552433732313a207472616e7366657220746f20746865207a65726f2061646460008201527f7265737300000000000000000000000000000000000000000000000000000000602082015250565b7f4552433732313a20617070726f766520746f2063616c6c657200000000000000600082015250565b7f4552433732313a2061646472657373207a65726f206973206e6f74206120766160008201527f6c6964206f776e65720000000000000000000000000000000000000000000000602082015250565b7f4552433732313a206d696e7420746f20746865207a65726f2061646472657373600082015250565b7f4552433732313a20696e76616c696420746f6b656e2049440000000000000000600082015250565b7f4552433732313a20617070726f76616c20746f2063757272656e74206f776e6560008201527f7200000000000000000000000000000000000000000000000000000000000000602082015250565b7f646174613a6170706c69636174696f6e2f6a736f6e3b6261736536342c000000600082015250565b7f4552433732313a20617070726f76652063616c6c6572206973206e6f7420746f60008201527f6b656e206f776e6572206f7220617070726f76656420666f7220616c6c000000602082015250565b61286481611fe4565b811461286f57600080fd5b50565b61287b81611ff6565b811461288657600080fd5b50565b61289281612002565b811461289d57600080fd5b50565b6128a98161204e565b81146128b457600080fd5b5056fea2646970667358221220d7fbcf8682f85590075eb28f49d0211e2ed7993ea047271bf720755362b3be2b64736f6c63430008010033",
  "linkReferences": {},
  "deployedLinkReferences": {}
}