{
  "_format": "hh-sol-artifact-1",
  "contractName": "EpicNFT",
  "sourceName": "contracts/EpicNFT.sol",
  "abi": [
    {
      "inputs": [],
      "stateMutability": "nonpayable",
      "type": "constructor"
    },
    {
      "anonymous": false,
      "inputs": [
        {
          "indexed": true,
          "internalType": "address",
          "name": "owner",
          "type": "address"
        },
        {
          "indexed": true,
          "internalType": "address",
          "name": "approved",
          "type": "address"
        },
        {
          "indexed": true,
          "internalType": "uint256",
          "name": "tokenId",
          "type": "uint256"
        }
      ],
      "name": "Approval",
      "type": "event"
    },
    {
      "anonymous": false,
      "inputs": [
        {
          "indexed": true,
          "internalType": "address",
          "name": "owner",
          "type": "address"
        },
        {
          "indexed": true,
          "internalType": "address",
          "name": "operator",
          "type": "address"
        },
        {
          "indexed": false,
          "internalType": "bool",
          "name": "approved",
          "type": "bool"
        }
      ],
      "name": "ApprovalForAll",
      "type": "event"
    },
    {
      "anonymous": false,
      "inputs": [
        {
          "indexed": false,
          "internalType": "address",
          "name": "sender",
          "type": "address"
        },
        {
          "indexed": false,
          "internalType": "uint256",
          "name": "tokenID",
          "type": "uint256"
        }
      ],
      "name": "MintNFT",
      "type": "event"
    },
    {
      "anonymous": false,
      "inputs": [
        {
          "indexed": true,
          "internalType": "address",
          "name": "from",
          "type": "address"
        },
        {
          "indexed": true,
          "internalType": "address",
          "name": "to",
          "type": "address"
        },
        {
          "indexed": true,
          "internalType": "uint256",
          "name": "tokenId",
          "type": "uint256"
        }
      ],
      "name": "Transfer",
      "type": "event"
    },
    {
      "inputs": [
        {
          "internalType": "address",
          "name": "to",
          "type": "address"
        },
        {
          "internalType": "uint256",
          "name": "tokenId",
          "type": "uint256"
        }
      ],
      "name": "approve",
      "outputs": [],
      "stateMutability": "nonpayable",
      "type": "function"
    },
    {
      "inputs": [
        {
          "internalType": "address",
          "name": "owner",
          "type": "address"
        }
      ],
      "name": "balanceOf",
      "outputs": [
        {
          "internalType": "uint256",
          "name": "",
          "type": "uint256"
        }
      ],
      "stateMutability": "view",
      "type": "function"
    },
    {
      "inputs": [],
      "name": "createEpicNFT",
      "outputs": [],
      "stateMutability": "nonpayable",
      "type": "function"
    },
    {
      "inputs": [
        {
          "internalType": "uint256",
          "name": "tokenId",
          "type": "uint256"
        }
      ],
      "name": "getApproved",
      "outputs": [
        {
          "internalType": "address",
          "name": "",
          "type": "address"
        }
      ],
      "stateMutability": "view",
      "type": "function"
    },
    {
      "inputs": [
        {
          "internalType": "address",
          "name": "owner",
          "type": "address"
        },
        {
          "internalType": "address",
          "name": "operator",
          "type": "address"
        }
      ],
      "name": "isApprovedForAll",
      "outputs": [
        {
          "internalType": "bool",
          "name": "",
          "type": "bool"
        }
      ],
      "stateMutability": "view",
      "type": "function"
    },
    {
      "inputs": [],
      "name": "name",
      "outputs": [
        {
          "internalType": "string",
          "name": "",
          "type": "string"
        }
      ],
      "stateMutability": "view",
      "type": "function"
    },
    {
      "inputs": [
        {
          "internalType": "uint256",
          "name": "tokenId",
          "type": "uint256"
        }
      ],
      "name": "ownerOf",
      "outputs": [
        {
          "internalType": "address",
          "name": "",
          "type": "address"
        }
      ],
      "stateMutability": "view",
      "type": "function"
    },
    {
      "inputs": [
        {
          "internalType": "uint256",
          "name": "tokenId",
          "type": "uint256"
        }
      ],
      "name": "pickRandomFirstWord",
      "outputs": [
        {
          "internalType": "string",
          "name": "",
          "type": "string"
        }
      ],
      "stateMutability": "view",
      "type": "function"
    },
    {
      "inputs": [
        {
          "internalType": "uint256",
          "name": "tokenId",
          "type": "uint256"
        }
      ],
      "name": "pickRandomSecondWord",
      "outputs": [
        {
          "internalType": "string",
          "name": "",
          "type": "string"
        }
      ],
      "stateMutability": "view",
      "type": "function"
    },
    {
      "inputs": [
        {
          "internalType": "uint256",
          "name": "tokenId",
          "type": "uint256"
        }
      ],
      "name": "pickRandomThirdWord",
      "outputs": [
        {
          "internalType": "string",
          "name": "",
          "type": "string"
        }
      ],
      "stateMutability": "view",
      "type": "function"
    },
    {
      "inputs": [
        {
          "internalType": "address",
          "name": "from",
          "type": "address"
        },
        {
          "internalType": "address",
          "name": "to",
          "type": "address"
        },
        {
          "internalType": "uint256",
          "name": "tokenId",
          "type": "uint256"
        }
      ],
      "name": "safeTransferFrom",
      "outputs": [],
      "stateMutability": "nonpayable",
      "type": "function"
    },
    {
      "inputs": [
        {
          "internalType": "address",
          "name": "from",
          "type": "address"
        },
        {
          "internalType": "address",
          "name": "to",
          "type": "address"
        },
        {
          "internalType": "uint256",
          "name": "tokenId",
          "type": "uint256"
        },
        {
          "internalType": "bytes",
          "name": "data",
          "type": "bytes"
        }
      ],
      "name": "safeTransferFrom",
      "outputs": [],
      "stateMutability": "nonpayable",
      "type": "function"
    },
    {
      "inputs": [
        {
          "internalType": "address",
          "name": "operator",
          "type": "address"
        },
        {
          "internalType": "bool",
          "name": "approved",
          "type": "bool"
        }
      ],
      "name": "setApprovalForAll",
      "outputs": [],
      "stateMutability": "nonpayable",
      "type": "function"
    },
    {
      "inputs": [
        {
          "internalType": "bytes4",
          "name": "interfaceId",
          "type": "bytes4"
        }
      ],
      "name": "supportsInterface",
      "outputs": [
        {
          "internalType": "bool",
          "name": "",
          "type": "bool"
        }
      ],
      "stateMutability": "view",
      "type": "function"
    },
    {
      "inputs": [],
      "name": "symbol",
      "outputs": [
        {
          "internalType": "string",
          "name": "",
          "type": "string"
        }
      ],
      "stateMutability": "view",
      "type": "function"
    },
    {
      "inputs": [
        {
          "internalType": "uint256",
          "name": "tokenId",
          "type": "uint256"
        }
      ],
      "name": "tokenURI",
      "outputs": [
        {
          "internalType": "string",
          "name": "",
          "type": "string"
        }
      ],
      "stateMutability": "view",
      "type": "function"
    },
    {
      "inputs": [
        {
          "internalType": "address",
          "name": "from",
          "type": "address"
        },
        {
          "internalType": "address",
          "name": "to",
          "type": "address"
        },
        {
          "internalType": "uint256",
          "name": "tokenId",
          "type": "uint256"
        }
      ],
      "name": "transferFrom",
      "outputs": [],
      "stateMutability": "nonpayable",
      "type": "function"
    }
  ],
  "bytecode": "0x608060405260405180610160016040528061012f81526020016200423161012f913960089080519060200190620000389291906200067e565b506040518060c001604052806040518060400160405280600581526020017f4d616e676100000000000000000000000000000000000000000000000000000081525081526020016040518060400160405280600581526020017f496e64696100000000000000000000000000000000000000000000000000000081525081526020016040518060400160405280600781526020017f45636f6e6f6d790000000000000000000000000000000000000000000000000081525081526020016040518060400160405280600581526020017f576f726c6400000000000000000000000000000000000000000000000000000081525081526020016040518060400160405280600581526020017f4572726f7200000000000000000000000000000000000000000000000000000081525081526020016040518060400160405280600a81526020017f426c6f636b636861696e000000000000000000000000000000000000000000008152508152506009906006620001b69291906200070f565b506040518060c001604052806040518060400160405280600681526020017f436f6d696373000000000000000000000000000000000000000000000000000081525081526020016040518060400160405280600681526020017f537069636573000000000000000000000000000000000000000000000000000081525081526020016040518060400160405280600481526020017f576573740000000000000000000000000000000000000000000000000000000081525081526020016040518060400160405280600581526020017f456172746800000000000000000000000000000000000000000000000000000081525081526020016040518060400160405280600481526020017f427567730000000000000000000000000000000000000000000000000000000081525081526020016040518060400160405280600781526020017f4e65775465636800000000000000000000000000000000000000000000000000815250815250600a906006620003349291906200070f565b506040518060c001604052806040518060400160405280600581526020017f4a6170616e00000000000000000000000000000000000000000000000000000081525081526020016040518060400160405280600881526020017f486572697461676500000000000000000000000000000000000000000000000081525081526020016040518060400160405280600381526020017f555341000000000000000000000000000000000000000000000000000000000081525081526020016040518060400160405280600481526020017f486f6d650000000000000000000000000000000000000000000000000000000081525081526020016040518060400160405280600481526020017f436f64650000000000000000000000000000000000000000000000000000000081525081526020016040518060400160405280600b81526020017f4e657750726f626c656d73000000000000000000000000000000000000000000815250815250600b906006620004b29291906200070f565b50348015620004c057600080fd5b506040518060400160405280600781526020017f457069634e4654000000000000000000000000000000000000000000000000008152506040518060400160405280600481526020017f454e4654000000000000000000000000000000000000000000000000000000008152508160009080519060200190620005459291906200067e565b5080600190805190602001906200055e9291906200067e565b505050620005ac6040518060400160405280600c81526020017f4e465420436f6e74726163740000000000000000000000000000000000000000815250620005b260201b62000ff61760201c565b62000930565b6200065281604051602401620005c9919062000844565b6040516020818303038152906040527f41304fac000000000000000000000000000000000000000000000000000000007bffffffffffffffffffffffffffffffffffffffffffffffffffffffff19166020820180517bffffffffffffffffffffffffffffffffffffffffffffffffffffffff83818316178352505050506200065560201b60201c565b50565b60008151905060006a636f6e736f6c652e6c6f679050602083016000808483855afa5050505050565b8280546200068c90620008ba565b90600052602060002090601f016020900481019282620006b05760008555620006fc565b82601f10620006cb57805160ff1916838001178555620006fc565b82800160010185558215620006fc579182015b82811115620006fb578251825591602001919060010190620006de565b5b5090506200070b919062000776565b5090565b82805482825590600052602060002090810192821562000763579160200282015b8281111562000762578251829080519060200190620007519291906200067e565b509160200191906001019062000730565b5b50905062000772919062000795565b5090565b5b808211156200079157600081600090555060010162000777565b5090565b5b80821115620007b95760008181620007af9190620007bd565b5060010162000796565b5090565b508054620007cb90620008ba565b6000825580601f10620007df575062000800565b601f016020900490600052602060002090810190620007ff919062000776565b5b50565b6000620008108262000868565b6200081c818562000873565b93506200082e81856020860162000884565b62000839816200091f565b840191505092915050565b6000602082019050818103600083015262000860818462000803565b905092915050565b600081519050919050565b600082825260208201905092915050565b60005b83811015620008a457808201518184015260208101905062000887565b83811115620008b4576000848401525b50505050565b60006002820490506001821680620008d357607f821691505b60208210811415620008ea57620008e9620008f0565b5b50919050565b7f4e487b7100000000000000000000000000000000000000000000000000000000600052602260045260246000fd5b6000601f19601f8301169050919050565b6138f180620009406000396000f3fe608060405234801561001057600080fd5b506004361061010b5760003560e01c80636352211e116100a2578063b187301f11610071578063b187301f146102b6578063b88d4fde146102e6578063c575757a14610302578063c87b56dd14610332578063e985e9c5146103625761010b565b80636352211e1461021c57806370a082311461024c57806395d89b411461027c578063a22cb4651461029a5761010b565b806323b872dd116100de57806323b872dd146101aa5780632de38d68146101c6578063340e1bed146101f657806342842e0e146102005761010b565b806301ffc9a71461011057806306fdde0314610140578063081812fc1461015e578063095ea7b31461018e575b600080fd5b61012a600480360381019061012591906126ff565b610392565b6040516101379190612d97565b60405180910390f35b610148610474565b6040516101559190612db2565b60405180910390f35b61017860048036038101906101739190612751565b610506565b6040516101859190612d07565b60405180910390f35b6101a860048036038101906101a391906126c3565b61054c565b005b6101c460048036038101906101bf91906125bd565b610664565b005b6101e060048036038101906101db9190612751565b6106c4565b6040516101ed9190612db2565b60405180910390f35b6101fe6107e2565b005b61021a600480360381019061021591906125bd565b6109aa565b005b61023660048036038101906102319190612751565b6109ca565b6040516102439190612d07565b60405180910390f35b61026660048036038101906102619190612558565b610a51565b6040516102739190612f54565b60405180910390f35b610284610b09565b6040516102919190612db2565b60405180910390f35b6102b460048036038101906102af9190612687565b610b9b565b005b6102d060048036038101906102cb9190612751565b610bb1565b6040516102dd9190612db2565b60405180910390f35b61030060048036038101906102fb919061260c565b610ccf565b005b61031c60048036038101906103179190612751565b610d31565b6040516103299190612db2565b60405180910390f35b61034c60048036038101906103479190612751565b610e4f565b6040516103599190612db2565b60405180910390f35b61037c60048036038101906103779190612581565b610f62565b6040516103899190612d97565b60405180910390f35b60007f80ac58cd000000000000000000000000000000000000000000000000000000007bffffffffffffffffffffffffffffffffffffffffffffffffffffffff1916827bffffffffffffffffffffffffffffffffffffffffffffffffffffffff1916148061045d57507f5b5e139f000000000000000000000000000000000000000000000000000000007bffffffffffffffffffffffffffffffffffffffffffffffffffffffff1916827bffffffffffffffffffffffffffffffffffffffffffffffffffffffff1916145b8061046d575061046c8261108f565b5b9050919050565b606060008054610483906131e8565b80601f01602080910402602001604051908101604052809291908181526020018280546104af906131e8565b80156104fc5780601f106104d1576101008083540402835291602001916104fc565b820191906000526020600020905b8154815290600101906020018083116104df57829003601f168201915b5050505050905090565b6000610511826110f9565b6004600083815260200190815260200160002060009054906101000a900473ffffffffffffffffffffffffffffffffffffffff169050919050565b6000610557826109ca565b90508073ffffffffffffffffffffffffffffffffffffffff168373ffffffffffffffffffffffffffffffffffffffff1614156105c8576040517f08c379a00000000000000000000000000000000000000000000000000000000081526004016105bf90612f14565b60405180910390fd5b8073ffffffffffffffffffffffffffffffffffffffff166105e7611144565b73ffffffffffffffffffffffffffffffffffffffff161480610616575061061581610610611144565b610f62565b5b610655576040517f08c379a000000000000000000000000000000000000000000000000000000000815260040161064c90612f34565b60405180910390fd5b61065f838361114c565b505050565b61067561066f611144565b82611205565b6106b4576040517f08c379a00000000000000000000000000000000000000000000000000000000081526004016106ab90612dd4565b60405180910390fd5b6106bf83838361129a565b505050565b606060006106f86106d484611594565b6040516020016106e49190612cc3565b6040516020818303038152906040526116b8565b90506009805490508161070b919061324b565b905060098181548110610747577f4e487b7100000000000000000000000000000000000000000000000000000000600052603260045260246000fd5b90600052602060002001805461075c906131e8565b80601f0160208091040260200160405190810160405280929190818152602001828054610788906131e8565b80156107d55780601f106107aa576101008083540402835291602001916107d5565b820191906000526020600020905b8154815290600101906020018083116107b857829003601f168201915b5050505050915050919050565b60006107ee60076116eb565b905060006107fb826106c4565b9050600061080883610bb1565b9050600061081584610d31565b9050600083838360405160200161082e93929190612bc0565b6040516020818303038152906040529050600060088585856040516020016108599493929190612bf1565b60405160208183030381529060405290506108a86040518060400160405280602081526020017f0a3d3d3d3d3d3d3d3d3d3d3d3d3d3d3d3d3d3d3d3d3d3d3d3d3d3d3d3d3d3d0a815250610ff6565b6108b181610ff6565b6108ef6040518060400160405280602081526020017f0a3d3d3d3d3d3d3d3d3d3d3d3d3d3d3d3d3d3d3d3d3d3d3d3d3d3d3d3d3d3d0a815250610ff6565b6000610923836108fe846116f9565b60405160200161090f929190612c7e565b6040516020818303038152906040526116f9565b90506000816040516020016109389190612ce5565b604051602081830303815290604052905061095333896118b7565b61095d88826118d5565b7f1f89f147a58d1673945cf416187db98efc8208408c011b91887acd59fd8523c3338960405161098e929190612d6e565b60405180910390a16109a06007611949565b5050505050505050565b6109c583838360405180602001604052806000815250610ccf565b505050565b6000806109d68361195f565b9050600073ffffffffffffffffffffffffffffffffffffffff168173ffffffffffffffffffffffffffffffffffffffff161415610a48576040517f08c379a0000000000000000000000000000000000000000000000000000000008152600401610a3f90612ef4565b60405180910390fd5b80915050919050565b60008073ffffffffffffffffffffffffffffffffffffffff168273ffffffffffffffffffffffffffffffffffffffff161415610ac2576040517f08c379a0000000000000000000000000000000000000000000000000000000008152600401610ab990612e94565b60405180910390fd5b600360008373ffffffffffffffffffffffffffffffffffffffff1673ffffffffffffffffffffffffffffffffffffffff168152602001908152602001600020549050919050565b606060018054610b18906131e8565b80601f0160208091040260200160405190810160405280929190818152602001828054610b44906131e8565b8015610b915780601f10610b6657610100808354040283529160200191610b91565b820191906000526020600020905b815481529060010190602001808311610b7457829003601f168201915b5050505050905090565b610bad610ba6611144565b838361199c565b5050565b60606000610be5610bc184611594565b604051602001610bd19190612c5c565b6040516020818303038152906040526116b8565b9050600a8054905081610bf8919061324b565b9050600a8181548110610c34577f4e487b7100000000000000000000000000000000000000000000000000000000600052603260045260246000fd5b906000526020600020018054610c49906131e8565b80601f0160208091040260200160405190810160405280929190818152602001828054610c75906131e8565b8015610cc25780601f10610c9757610100808354040283529160200191610cc2565b820191906000526020600020905b815481529060010190602001808311610ca557829003601f168201915b5050505050915050919050565b610ce0610cda611144565b83611205565b610d1f576040517f08c379a0000000000000000000000000000000000000000000000000000000008152600401610d1690612dd4565b60405180910390fd5b610d2b84848484611b09565b50505050565b60606000610d65610d4184611594565b604051602001610d519190612c3a565b6040516020818303038152906040526116b8565b9050600b8054905081610d78919061324b565b9050600b8181548110610db4577f4e487b7100000000000000000000000000000000000000000000000000000000600052603260045260246000fd5b906000526020600020018054610dc9906131e8565b80601f0160208091040260200160405190810160405280929190818152602001828054610df5906131e8565b8015610e425780601f10610e1757610100808354040283529160200191610e42565b820191906000526020600020905b815481529060010190602001808311610e2557829003601f168201915b5050505050915050919050565b6060610e5a826110f9565b6000600660008481526020019081526020016000208054610e7a906131e8565b80601f0160208091040260200160405190810160405280929190818152602001828054610ea6906131e8565b8015610ef35780601f10610ec857610100808354040283529160200191610ef3565b820191906000526020600020905b815481529060010190602001808311610ed657829003601f168201915b505050505090506000610f04611b65565b9050600081511415610f1a578192505050610f5d565b600082511115610f4f578082604051602001610f37929190612b9c565b60405160208183030381529060405292505050610f5d565b610f5884611b7c565b925050505b919050565b6000600560008473ffffffffffffffffffffffffffffffffffffffff1673ffffffffffffffffffffffffffffffffffffffff16815260200190815260200160002060008373ffffffffffffffffffffffffffffffffffffffff1673ffffffffffffffffffffffffffffffffffffffff16815260200190815260200160002060009054906101000a900460ff16905092915050565b61108c8160405160240161100a9190612db2565b6040516020818303038152906040527f41304fac000000000000000000000000000000000000000000000000000000007bffffffffffffffffffffffffffffffffffffffffffffffffffffffff19166020820180517bffffffffffffffffffffffffffffffffffffffffffffffffffffffff8381831617835250505050611be4565b50565b60007f01ffc9a7000000000000000000000000000000000000000000000000000000007bffffffffffffffffffffffffffffffffffffffffffffffffffffffff1916827bffffffffffffffffffffffffffffffffffffffffffffffffffffffff1916149050919050565b61110281611c0d565b611141576040517f08c379a000000000000000000000000000000000000000000000000000000000815260040161113890612ef4565b60405180910390fd5b50565b600033905090565b816004600083815260200190815260200160002060006101000a81548173ffffffffffffffffffffffffffffffffffffffff021916908373ffffffffffffffffffffffffffffffffffffffff160217905550808273ffffffffffffffffffffffffffffffffffffffff166111bf836109ca565b73ffffffffffffffffffffffffffffffffffffffff167f8c5be1e5ebec7d5bd14f71427d1e84f3dd0314c0f7b2291e5b200ac8c7c3b92560405160405180910390a45050565b600080611211836109ca565b90508073ffffffffffffffffffffffffffffffffffffffff168473ffffffffffffffffffffffffffffffffffffffff16148061125357506112528185610f62565b5b8061129157508373ffffffffffffffffffffffffffffffffffffffff1661127984610506565b73ffffffffffffffffffffffffffffffffffffffff16145b91505092915050565b8273ffffffffffffffffffffffffffffffffffffffff166112ba826109ca565b73ffffffffffffffffffffffffffffffffffffffff1614611310576040517f08c379a000000000000000000000000000000000000000000000000000000000815260040161130790612e14565b60405180910390fd5b600073ffffffffffffffffffffffffffffffffffffffff168273ffffffffffffffffffffffffffffffffffffffff161415611380576040517f08c379a000000000000000000000000000000000000000000000000000000000815260040161137790612e54565b60405180910390fd5b61138d8383836001611c4e565b8273ffffffffffffffffffffffffffffffffffffffff166113ad826109ca565b73ffffffffffffffffffffffffffffffffffffffff1614611403576040517f08c379a00000000000000000000000000000000000000000000000000000000081526004016113fa90612e14565b60405180910390fd5b6004600082815260200190815260200160002060006101000a81549073ffffffffffffffffffffffffffffffffffffffff02191690556001600360008573ffffffffffffffffffffffffffffffffffffffff1673ffffffffffffffffffffffffffffffffffffffff168152602001908152602001600020600082825403925050819055506001600360008473ffffffffffffffffffffffffffffffffffffffff1673ffffffffffffffffffffffffffffffffffffffff16815260200190815260200160002060008282540192505081905550816002600083815260200190815260200160002060006101000a81548173ffffffffffffffffffffffffffffffffffffffff021916908373ffffffffffffffffffffffffffffffffffffffff160217905550808273ffffffffffffffffffffffffffffffffffffffff168473ffffffffffffffffffffffffffffffffffffffff167fddf252ad1be2c89b69c2b068fc378daa952ba7f163c4a11628f55a4df523b3ef60405160405180910390a461158f8383836001611d74565b505050565b6060600060016115a384611d7a565b01905060008167ffffffffffffffff8111156115e8577f4e487b7100000000000000000000000000000000000000000000000000000000600052604160045260246000fd5b6040519080825280601f01601f19166020018201604052801561161a5781602001600182028036833780820191505090505b509050600082602001820190505b6001156116ad578080600190039150507f3031323334353637383961626364656600000000000000000000000000000000600a86061a8153600a8581611697577f4e487b7100000000000000000000000000000000000000000000000000000000600052601260045260246000fd5b04945060008514156116a8576116ad565b611628565b819350505050919050565b6000816040516020016116cb9190612b85565b6040516020818303038152906040528051906020012060001c9050919050565b600081600001549050919050565b6060600082519050600081141561172257604051806020016040528060008152509150506118b2565b60006003600283611733919061301d565b61173d9190613073565b600461174991906130a4565b9050600060208261175a919061301d565b67ffffffffffffffff811115611799577f4e487b7100000000000000000000000000000000000000000000000000000000600052604160045260246000fd5b6040519080825280601f01601f1916602001820160405280156117cb5781602001600182028036833780820191505090505b509050600060405180606001604052806040815260200161387c604091399050600181016020830160005b8681101561186f5760038101905062ffffff818a015116603f8160121c168401518060081b905060ff603f83600c1c1686015116810190508060081b905060ff603f8360061c1686015116810190508060081b905060ff603f831686015116810190508060e01b905080845260048401935050506117f6565b5060038606600181146118895760028114611899576118a4565b613d3d60f01b60028303526118a4565b603d60f81b60018303525b508484525050819450505050505b919050565b6118d1828260405180602001604052806000815250611fb1565b5050565b6118de82611c0d565b61191d576040517f08c379a000000000000000000000000000000000000000000000000000000000815260040161191490612eb4565b60405180910390fd5b806006600084815260200190815260200160002090805190602001906119449291906123e4565b505050565b6001816000016000828254019250508190555050565b60006002600083815260200190815260200160002060009054906101000a900473ffffffffffffffffffffffffffffffffffffffff169050919050565b8173ffffffffffffffffffffffffffffffffffffffff168373ffffffffffffffffffffffffffffffffffffffff161415611a0b576040517f08c379a0000000000000000000000000000000000000000000000000000000008152600401611a0290612e74565b60405180910390fd5b80600560008573ffffffffffffffffffffffffffffffffffffffff1673ffffffffffffffffffffffffffffffffffffffff16815260200190815260200160002060008473ffffffffffffffffffffffffffffffffffffffff1673ffffffffffffffffffffffffffffffffffffffff16815260200190815260200160002060006101000a81548160ff0219169083151502179055508173ffffffffffffffffffffffffffffffffffffffff168373ffffffffffffffffffffffffffffffffffffffff167f17307eab39ab6107e8899845ad3d59bd9653f200f220920489ca2b5937696c3183604051611afc9190612d97565b60405180910390a3505050565b611b1484848461129a565b611b208484848461200c565b611b5f576040517f08c379a0000000000000000000000000000000000000000000000000000000008152600401611b5690612df4565b60405180910390fd5b50505050565b606060405180602001604052806000815250905090565b6060611b87826110f9565b6000611b91611b65565b90506000815111611bb15760405180602001604052806000815250611bdc565b80611bbb84611594565b604051602001611bcc929190612b9c565b6040516020818303038152906040525b915050919050565b60008151905060006a636f6e736f6c652e6c6f679050602083016000808483855afa5050505050565b60008073ffffffffffffffffffffffffffffffffffffffff16611c2f8361195f565b73ffffffffffffffffffffffffffffffffffffffff1614159050919050565b6001811115611d6e57600073ffffffffffffffffffffffffffffffffffffffff168473ffffffffffffffffffffffffffffffffffffffff1614611ce25780600360008673ffffffffffffffffffffffffffffffffffffffff1673ffffffffffffffffffffffffffffffffffffffff1681526020019081526020016000206000828254611cda91906130fe565b925050819055505b600073ffffffffffffffffffffffffffffffffffffffff168373ffffffffffffffffffffffffffffffffffffffff1614611d6d5780600360008573ffffffffffffffffffffffffffffffffffffffff1673ffffffffffffffffffffffffffffffffffffffff1681526020019081526020016000206000828254611d65919061301d565b925050819055505b5b50505050565b50505050565b600080600090507a184f03e93ff9f4daa797ed6e38ed64bf6a1f0100000000000000008310611dfe577a184f03e93ff9f4daa797ed6e38ed64bf6a1f0100000000000000008381611df4577f4e487b7100000000000000000000000000000000000000000000000000000000600052601260045260246000fd5b0492506040810190505b6d04ee2d6d415b85acef81000000008310611e61576d04ee2d6d415b85acef81000000008381611e57577f4e487b7100000000000000000000000000000000000000000000000000000000600052601260045260246000fd5b0492506020810190505b662386f26fc100008310611eb657662386f26fc100008381611eac577f4e487b7100000000000000000000000000000000000000000000000000000000600052601260045260246000fd5b0492506010810190505b6305f5e1008310611f05576305f5e1008381611efb577f4e487b7100000000000000000000000000000000000000000000000000000000600052601260045260246000fd5b0492506008810190505b6127108310611f50576127108381611f46577f4e487b7100000000000000000000000000000000000000000000000000000000600052601260045260246000fd5b0492506004810190505b60648310611f995760648381611f8f577f4e487b7100000000000000000000000000000000000000000000000000000000600052601260045260246000fd5b0492506002810190505b600a8310611fa8576001810190505b80915050919050565b611fbb83836121a3565b611fc8600084848461200c565b612007576040517f08c379a0000000000000000000000000000000000000000000000000000000008152600401611ffe90612df4565b60405180910390fd5b505050565b600061202d8473ffffffffffffffffffffffffffffffffffffffff166123c1565b15612196578373ffffffffffffffffffffffffffffffffffffffff1663150b7a02612056611144565b8786866040518563ffffffff1660e01b81526004016120789493929190612d22565b602060405180830381600087803b15801561209257600080fd5b505af19250505080156120c357506040513d601f19601f820116820180604052508101906120c09190612728565b60015b612146573d80600081146120f3576040519150601f19603f3d011682016040523d82523d6000602084013e6120f8565b606091505b5060008151141561213e576040517f08c379a000000000000000000000000000000000000000000000000000000000815260040161213590612df4565b60405180910390fd5b805181602001fd5b63150b7a0260e01b7bffffffffffffffffffffffffffffffffffffffffffffffffffffffff1916817bffffffffffffffffffffffffffffffffffffffffffffffffffffffff19161491505061219b565b600190505b949350505050565b600073ffffffffffffffffffffffffffffffffffffffff168273ffffffffffffffffffffffffffffffffffffffff161415612213576040517f08c379a000000000000000000000000000000000000000000000000000000000815260040161220a90612ed4565b60405180910390fd5b61221c81611c0d565b1561225c576040517f08c379a000000000000000000000000000000000000000000000000000000000815260040161225390612e34565b60405180910390fd5b61226a600083836001611c4e565b61227381611c0d565b156122b3576040517f08c379a00000000000000000000000000000000000000000000000000000000081526004016122aa90612e34565b60405180910390fd5b6001600360008473ffffffffffffffffffffffffffffffffffffffff1673ffffffffffffffffffffffffffffffffffffffff16815260200190815260200160002060008282540192505081905550816002600083815260200190815260200160002060006101000a81548173ffffffffffffffffffffffffffffffffffffffff021916908373ffffffffffffffffffffffffffffffffffffffff160217905550808273ffffffffffffffffffffffffffffffffffffffff16600073ffffffffffffffffffffffffffffffffffffffff167fddf252ad1be2c89b69c2b068fc378daa952ba7f163c4a11628f55a4df523b3ef60405160405180910390a46123bd600083836001611d74565b5050565b6000808273ffffffffffffffffffffffffffffffffffffffff163b119050919050565b8280546123f0906131e8565b90600052602060002090601f0160209004810192826124125760008555612459565b82601f1061242b57805160ff1916838001178555612459565b82800160010185558215612459579182015b8281111561245857825182559160200191906001019061243d565b5b509050612466919061246a565b5090565b5b8082111561248357600081600090555060010161246b565b5090565b600061249a61249584612f94565b612f6f565b9050828152602081018484840111156124b257600080fd5b6124bd8482856131a6565b509392505050565b6000813590506124d48161381f565b92915050565b6000813590506124e981613836565b92915050565b6000813590506124fe8161384d565b92915050565b6000815190506125138161384d565b92915050565b600082601f83011261252a57600080fd5b813561253a848260208601612487565b91505092915050565b60008135905061255281613864565b92915050565b60006020828403121561256a57600080fd5b6000612578848285016124c5565b91505092915050565b6000806040838503121561259457600080fd5b60006125a2858286016124c5565b92505060206125b3858286016124c5565b9150509250929050565b6000806000606084860312156125d257600080fd5b60006125e0868287016124c5565b93505060206125f1868287016124c5565b925050604061260286828701612543565b9150509250925092565b6000806000806080858703121561262257600080fd5b6000612630878288016124c5565b9450506020612641878288016124c5565b935050604061265287828801612543565b925050606085013567ffffffffffffffff81111561266f57600080fd5b61267b87828801612519565b91505092959194509250565b6000806040838503121561269a57600080fd5b60006126a8858286016124c5565b92505060206126b9858286016124da565b9150509250929050565b600080604083850312156126d657600080fd5b60006126e4858286016124c5565b92505060206126f585828601612543565b9150509250929050565b60006020828403121561271157600080fd5b600061271f848285016124ef565b91505092915050565b60006020828403121561273a57600080fd5b600061274884828501612504565b91505092915050565b60006020828403121561276357600080fd5b600061277184828501612543565b91505092915050565b61278381613132565b82525050565b61279281613144565b82525050565b60006127a382612fda565b6127ad8185612ff0565b93506127bd8185602086016131b5565b6127c681613338565b840191505092915050565b60006127dc82612fe5565b6127e68185613001565b93506127f68185602086016131b5565b6127ff81613338565b840191505092915050565b600061281582612fe5565b61281f8185613012565b935061282f8185602086016131b5565b80840191505092915050565b60008154612848816131e8565b6128528186613012565b9450600182166000811461286d576001811461287e576128b1565b60ff198316865281860193506128b1565b61288785612fc5565b60005b838110156128a95781548189015260018201915060208101905061288a565b838801955050505b50505092915050565b60006128c7602d83613001565b91506128d282613349565b604082019050919050565b60006128ea603283613001565b91506128f582613398565b604082019050919050565b600061290d602583613001565b9150612918826133e7565b604082019050919050565b6000612930601c83613001565b915061293b82613436565b602082019050919050565b6000612953600a83613012565b915061295e8261345f565b600a82019050919050565b6000612976602483613001565b915061298182613488565b604082019050919050565b6000612999601983613001565b91506129a4826134d7565b602082019050919050565b60006129bc606383613012565b91506129c782613500565b606382019050919050565b60006129df600b83613012565b91506129ea8261359b565b600b82019050919050565b6000612a02600d83613012565b9150612a0d826135c4565b600d82019050919050565b6000612a25602983613001565b9150612a30826135ed565b604082019050919050565b6000612a48602e83613001565b9150612a538261363c565b604082019050919050565b6000612a6b600283613012565b9150612a768261368b565b600282019050919050565b6000612a8e602083613001565b9150612a99826136b4565b602082019050919050565b6000612ab1600a83613012565b9150612abc826136dd565b600a82019050919050565b6000612ad4601883613001565b9150612adf82613706565b602082019050919050565b6000612af7602183613001565b9150612b028261372f565b604082019050919050565b6000612b1a600a83613012565b9150612b258261377e565b600a82019050919050565b6000612b3d601d83613012565b9150612b48826137a7565b601d82019050919050565b6000612b60603d83613001565b9150612b6b826137d0565b604082019050919050565b612b7f8161319c565b82525050565b6000612b91828461280a565b915081905092915050565b6000612ba8828561280a565b9150612bb4828461280a565b91508190509392505050565b6000612bcc828661280a565b9150612bd8828561280a565b9150612be4828461280a565b9150819050949350505050565b6000612bfd828761283b565b9150612c09828661280a565b9150612c15828561280a565b9150612c21828461280a565b9150612c2c826129f5565b915081905095945050505050565b6000612c4582612946565b9150612c51828461280a565b915081905092915050565b6000612c67826129d2565b9150612c73828461280a565b915081905092915050565b6000612c8982612aa4565b9150612c95828561280a565b9150612ca0826129af565b9150612cac828461280a565b9150612cb782612a5e565b91508190509392505050565b6000612cce82612b0d565b9150612cda828461280a565b915081905092915050565b6000612cf082612b30565b9150612cfc828461280a565b915081905092915050565b6000602082019050612d1c600083018461277a565b92915050565b6000608082019050612d37600083018761277a565b612d44602083018661277a565b612d516040830185612b76565b8181036060830152612d638184612798565b905095945050505050565b6000604082019050612d83600083018561277a565b612d906020830184612b76565b9392505050565b6000602082019050612dac6000830184612789565b92915050565b60006020820190508181036000830152612dcc81846127d1565b905092915050565b60006020820190508181036000830152612ded816128ba565b9050919050565b60006020820190508181036000830152612e0d816128dd565b9050919050565b60006020820190508181036000830152612e2d81612900565b9050919050565b60006020820190508181036000830152612e4d81612923565b9050919050565b60006020820190508181036000830152612e6d81612969565b9050919050565b60006020820190508181036000830152612e8d8161298c565b9050919050565b60006020820190508181036000830152612ead81612a18565b9050919050565b60006020820190508181036000830152612ecd81612a3b565b9050919050565b60006020820190508181036000830152612eed81612a81565b9050919050565b60006020820190508181036000830152612f0d81612ac7565b9050919050565b60006020820190508181036000830152612f2d81612aea565b9050919050565b60006020820190508181036000830152612f4d81612b53565b9050919050565b6000602082019050612f696000830184612b76565b92915050565b6000612f79612f8a565b9050612f85828261321a565b919050565b6000604051905090565b600067ffffffffffffffff821115612faf57612fae613309565b5b612fb882613338565b9050602081019050919050565b60008190508160005260206000209050919050565b600081519050919050565b600081519050919050565b600082825260208201905092915050565b600082825260208201905092915050565b600081905092915050565b60006130288261319c565b91506130338361319c565b9250827fffffffffffffffffffffffffffffffffffffffffffffffffffffffffffffffff038211156130685761306761327c565b5b828201905092915050565b600061307e8261319c565b91506130898361319c565b925082613099576130986132ab565b5b828204905092915050565b60006130af8261319c565b91506130ba8361319c565b9250817fffffffffffffffffffffffffffffffffffffffffffffffffffffffffffffffff04831182151516156130f3576130f261327c565b5b828202905092915050565b60006131098261319c565b91506131148361319c565b9250828210156131275761312661327c565b5b828203905092915050565b600061313d8261317c565b9050919050565b60008115159050919050565b60007fffffffff0000000000000000000000000000000000000000000000000000000082169050919050565b600073ffffffffffffffffffffffffffffffffffffffff82169050919050565b6000819050919050565b82818337600083830152505050565b60005b838110156131d35780820151818401526020810190506131b8565b838111156131e2576000848401525b50505050565b6000600282049050600182168061320057607f821691505b60208210811415613214576132136132da565b5b50919050565b61322382613338565b810181811067ffffffffffffffff8211171561324257613241613309565b5b80604052505050565b60006132568261319c565b91506132618361319c565b925082613271576132706132ab565b5b828206905092915050565b7f4e487b7100000000000000000000000000000000000000000000000000000000600052601160045260246000fd5b7f4e487b7100000000000000000000000000000000000000000000000000000000600052601260045260246000fd5b7f4e487b7100000000000000000000000000000000000000000000000000000000600052602260045260246000fd5b7f4e487b7100000000000000000000000000000000000000000000000000000000600052604160045260246000fd5b6000601f19601f8301169050919050565b7f4552433732313a2063616c6c6572206973206e6f7420746f6b656e206f776e6560008201527f72206f7220617070726f76656400000000000000000000000000000000000000602082015250565b7f4552433732313a207472616e7366657220746f206e6f6e20455243373231526560008201527f63656976657220696d706c656d656e7465720000000000000000000000000000602082015250565b7f4552433732313a207472616e736665722066726f6d20696e636f72726563742060008201527f6f776e6572000000000000000000000000000000000000000000000000000000602082015250565b7f4552433732313a20746f6b656e20616c7265616479206d696e74656400000000600082015250565b7f54484952445f574f524400000000000000000000000000000000000000000000600082015250565b7f4552433732313a207472616e7366657220746f20746865207a65726f2061646460008201527f7265737300000000000000000000000000000000000000000000000000000000602082015250565b7f4552433732313a20617070726f766520746f2063616c6c657200000000000000600082015250565b7f222c20226465736372697074696f6e223a20224120686967686c79206163636c60008201527f61696d656420636f6c6c656374696f6e206f6620737175617265732e222c202260208201527f696d616765223a2022646174613a696d6167652f7376672b786d6c3b6261736560408201527f36342c0000000000000000000000000000000000000000000000000000000000606082015250565b7f5345434f4e445f574f5244000000000000000000000000000000000000000000600082015250565b7f3c2f746578743e3c2f7376673e00000000000000000000000000000000000000600082015250565b7f4552433732313a2061646472657373207a65726f206973206e6f74206120766160008201527f6c6964206f776e65720000000000000000000000000000000000000000000000602082015250565b7f45524337323155524953746f726167653a2055524920736574206f66206e6f6e60008201527f6578697374656e7420746f6b656e000000000000000000000000000000000000602082015250565b7f227d000000000000000000000000000000000000000000000000000000000000600082015250565b7f4552433732313a206d696e7420746f20746865207a65726f2061646472657373600082015250565b7f7b226e616d65223a202200000000000000000000000000000000000000000000600082015250565b7f4552433732313a20696e76616c696420746f6b656e2049440000000000000000600082015250565b7f4552433732313a20617070726f76616c20746f2063757272656e74206f776e6560008201527f7200000000000000000000000000000000000000000000000000000000000000602082015250565b7f46495253545f574f524400000000000000000000000000000000000000000000600082015250565b7f646174613a6170706c69636174696f6e2f6a736f6e3b6261736536342c000000600082015250565b7f4552433732313a20617070726f76652063616c6c6572206973206e6f7420746f60008201527f6b656e206f776e6572206f7220617070726f76656420666f7220616c6c000000602082015250565b61382881613132565b811461383357600080fd5b50565b61383f81613144565b811461384a57600080fd5b50565b61385681613150565b811461386157600080fd5b50565b61386d8161319c565b811461387857600080fd5b5056fe4142434445464748494a4b4c4d4e4f505152535455565758595a6162636465666768696a6b6c6d6e6f707172737475767778797a303132333435363738392b2fa2646970667358221220c3293e09d27a7809d16447ea2a61ca530bfd6f010edb4e87649affca9872bdcb64736f6c634300080100333c73766720786d6c6e733d27687474703a2f2f7777772e77332e6f72672f323030302f73766727207072657365727665417370656374526174696f3d27784d696e594d696e206d656574272076696577426f783d273020302033353020333530273e3c7374796c653e2e62617365207b2066696c6c3a2077686974653b20666f6e742d66616d696c793a2073657269663b20666f6e742d73697a653a20323470783b207d3c2f7374796c653e3c726563742077696474683d273130302527206865696768743d2731303025272066696c6c3d27626c61636b27202f3e3c7465787420783d273530252720793d273530252720636c6173733d27626173652720646f6d696e616e742d626173656c696e653d276d6964646c652720746578742d616e63686f723d276d6964646c65273e",
  "linkReferences": {},
  "deployedLinkReferences": {}
}