{
    "_format": "hh-sol-artifact-1",
    "contractName": "EpicNFT",
    "sourceName": "contracts/EpicNFT.sol",
    "abi": [
        {
            "inputs": [],
            "stateMutability": "nonpayable",
            "type": "constructor"
        },
        {
            "anonymous": false,
            "inputs": [
                {
                    "indexed": true,
                    "internalType": "address",
                    "name": "owner",
                    "type": "address"
                },
                {
                    "indexed": true,
                    "internalType": "address",
                    "name": "approved",
                    "type": "address"
                },
                {
                    "indexed": true,
                    "internalType": "uint256",
                    "name": "tokenId",
                    "type": "uint256"
                }
            ],
            "name": "Approval",
            "type": "event"
        },
        {
            "anonymous": false,
            "inputs": [
                {
                    "indexed": true,
                    "internalType": "address",
                    "name": "owner",
                    "type": "address"
                },
                {
                    "indexed": true,
                    "internalType": "address",
                    "name": "operator",
                    "type": "address"
                },
                {
                    "indexed": false,
                    "internalType": "bool",
                    "name": "approved",
                    "type": "bool"
                }
            ],
            "name": "ApprovalForAll",
            "type": "event"
        },
        {
            "anonymous": false,
            "inputs": [
                {
                    "indexed": true,
                    "internalType": "address",
                    "name": "from",
                    "type": "address"
                },
                {
                    "indexed": true,
                    "internalType": "address",
                    "name": "to",
                    "type": "address"
                },
                {
                    "indexed": true,
                    "internalType": "uint256",
                    "name": "tokenId",
                    "type": "uint256"
                }
            ],
            "name": "Transfer",
            "type": "event"
        },
        {
            "inputs": [
                {
                    "internalType": "address",
                    "name": "to",
                    "type": "address"
                },
                {
                    "internalType": "uint256",
                    "name": "tokenId",
                    "type": "uint256"
                }
            ],
            "name": "approve",
            "outputs": [],
            "stateMutability": "nonpayable",
            "type": "function"
        },
        {
            "inputs": [
                {
                    "internalType": "address",
                    "name": "owner",
                    "type": "address"
                }
            ],
            "name": "balanceOf",
            "outputs": [
                {
                    "internalType": "uint256",
                    "name": "",
                    "type": "uint256"
                }
            ],
            "stateMutability": "view",
            "type": "function"
        },
        {
            "inputs": [],
            "name": "createEpicNFT",
            "outputs": [],
            "stateMutability": "nonpayable",
            "type": "function"
        },
        {
            "inputs": [
                {
                    "internalType": "uint256",
                    "name": "tokenId",
                    "type": "uint256"
                }
            ],
            "name": "getApproved",
            "outputs": [
                {
                    "internalType": "address",
                    "name": "",
                    "type": "address"
                }
            ],
            "stateMutability": "view",
            "type": "function"
        },
        {
            "inputs": [
                {
                    "internalType": "address",
                    "name": "owner",
                    "type": "address"
                },
                {
                    "internalType": "address",
                    "name": "operator",
                    "type": "address"
                }
            ],
            "name": "isApprovedForAll",
            "outputs": [
                {
                    "internalType": "bool",
                    "name": "",
                    "type": "bool"
                }
            ],
            "stateMutability": "view",
            "type": "function"
        },
        {
            "inputs": [],
            "name": "name",
            "outputs": [
                {
                    "internalType": "string",
                    "name": "",
                    "type": "string"
                }
            ],
            "stateMutability": "view",
            "type": "function"
        },
        {
            "inputs": [
                {
                    "internalType": "uint256",
                    "name": "tokenId",
                    "type": "uint256"
                }
            ],
            "name": "ownerOf",
            "outputs": [
                {
                    "internalType": "address",
                    "name": "",
                    "type": "address"
                }
            ],
            "stateMutability": "view",
            "type": "function"
        },
        {
            "inputs": [
                {
                    "internalType": "uint256",
                    "name": "tokenId",
                    "type": "uint256"
                }
            ],
            "name": "pickRandomFirstWord",
            "outputs": [
                {
                    "internalType": "string",
                    "name": "",
                    "type": "string"
                }
            ],
            "stateMutability": "view",
            "type": "function"
        },
        {
            "inputs": [
                {
                    "internalType": "uint256",
                    "name": "tokenId",
                    "type": "uint256"
                }
            ],
            "name": "pickRandomSecondWord",
            "outputs": [
                {
                    "internalType": "string",
                    "name": "",
                    "type": "string"
                }
            ],
            "stateMutability": "view",
            "type": "function"
        },
        {
            "inputs": [
                {
                    "internalType": "uint256",
                    "name": "tokenId",
                    "type": "uint256"
                }
            ],
            "name": "pickRandomThirdWord",
            "outputs": [
                {
                    "internalType": "string",
                    "name": "",
                    "type": "string"
                }
            ],
            "stateMutability": "view",
            "type": "function"
        },
        {
            "inputs": [
                {
                    "internalType": "address",
                    "name": "from",
                    "type": "address"
                },
                {
                    "internalType": "address",
                    "name": "to",
                    "type": "address"
                },
                {
                    "internalType": "uint256",
                    "name": "tokenId",
                    "type": "uint256"
                }
            ],
            "name": "safeTransferFrom",
            "outputs": [],
            "stateMutability": "nonpayable",
            "type": "function"
        },
        {
            "inputs": [
                {
                    "internalType": "address",
                    "name": "from",
                    "type": "address"
                },
                {
                    "internalType": "address",
                    "name": "to",
                    "type": "address"
                },
                {
                    "internalType": "uint256",
                    "name": "tokenId",
                    "type": "uint256"
                },
                {
                    "internalType": "bytes",
                    "name": "data",
                    "type": "bytes"
                }
            ],
            "name": "safeTransferFrom",
            "outputs": [],
            "stateMutability": "nonpayable",
            "type": "function"
        },
        {
            "inputs": [
                {
                    "internalType": "address",
                    "name": "operator",
                    "type": "address"
                },
                {
                    "internalType": "bool",
                    "name": "approved",
                    "type": "bool"
                }
            ],
            "name": "setApprovalForAll",
            "outputs": [],
            "stateMutability": "nonpayable",
            "type": "function"
        },
        {
            "inputs": [
                {
                    "internalType": "bytes4",
                    "name": "interfaceId",
                    "type": "bytes4"
                }
            ],
            "name": "supportsInterface",
            "outputs": [
                {
                    "internalType": "bool",
                    "name": "",
                    "type": "bool"
                }
            ],
            "stateMutability": "view",
            "type": "function"
        },
        {
            "inputs": [],
            "name": "symbol",
            "outputs": [
                {
                    "internalType": "string",
                    "name": "",
                    "type": "string"
                }
            ],
            "stateMutability": "view",
            "type": "function"
        },
        {
            "inputs": [
                {
                    "internalType": "uint256",
                    "name": "tokenId",
                    "type": "uint256"
                }
            ],
            "name": "tokenURI",
            "outputs": [
                {
                    "internalType": "string",
                    "name": "",
                    "type": "string"
                }
            ],
            "stateMutability": "view",
            "type": "function"
        },
        {
            "inputs": [
                {
                    "internalType": "address",
                    "name": "from",
                    "type": "address"
                },
                {
                    "internalType": "address",
                    "name": "to",
                    "type": "address"
                },
                {
                    "internalType": "uint256",
                    "name": "tokenId",
                    "type": "uint256"
                }
            ],
            "name": "transferFrom",
            "outputs": [],
            "stateMutability": "nonpayable",
            "type": "function"
        }
    ],
    "bytecode": "0x608060405260405180610160016040528061012f8152602001620041cf61012f913960089080519060200190620000389291906200067e565b506040518060c001604052806040518060400160405280600581526020017f4d616e676100000000000000000000000000000000000000000000000000000081525081526020016040518060400160405280600581526020017f496e64696100000000000000000000000000000000000000000000000000000081525081526020016040518060400160405280600781526020017f45636f6e6f6d790000000000000000000000000000000000000000000000000081525081526020016040518060400160405280600581526020017f576f726c6400000000000000000000000000000000000000000000000000000081525081526020016040518060400160405280600581526020017f4572726f7200000000000000000000000000000000000000000000000000000081525081526020016040518060400160405280600a81526020017f426c6f636b636861696e000000000000000000000000000000000000000000008152508152506009906006620001b69291906200070f565b506040518060c001604052806040518060400160405280600681526020017f436f6d696373000000000000000000000000000000000000000000000000000081525081526020016040518060400160405280600681526020017f537069636573000000000000000000000000000000000000000000000000000081525081526020016040518060400160405280600481526020017f576573740000000000000000000000000000000000000000000000000000000081525081526020016040518060400160405280600581526020017f456172746800000000000000000000000000000000000000000000000000000081525081526020016040518060400160405280600481526020017f427567730000000000000000000000000000000000000000000000000000000081525081526020016040518060400160405280600781526020017f4e65775465636800000000000000000000000000000000000000000000000000815250815250600a906006620003349291906200070f565b506040518060c001604052806040518060400160405280600581526020017f4a6170616e00000000000000000000000000000000000000000000000000000081525081526020016040518060400160405280600881526020017f486572697461676500000000000000000000000000000000000000000000000081525081526020016040518060400160405280600381526020017f555341000000000000000000000000000000000000000000000000000000000081525081526020016040518060400160405280600481526020017f486f6d650000000000000000000000000000000000000000000000000000000081525081526020016040518060400160405280600481526020017f436f64650000000000000000000000000000000000000000000000000000000081525081526020016040518060400160405280600b81526020017f4e657750726f626c656d73000000000000000000000000000000000000000000815250815250600b906006620004b29291906200070f565b50348015620004c057600080fd5b506040518060400160405280600781526020017f457069634e4654000000000000000000000000000000000000000000000000008152506040518060400160405280600481526020017f454e4654000000000000000000000000000000000000000000000000000000008152508160009080519060200190620005459291906200067e565b5080600190805190602001906200055e9291906200067e565b505050620005ac6040518060400160405280600c81526020017f4e465420436f6e74726163740000000000000000000000000000000000000000815250620005b260201b62000fbd1760201c565b62000930565b6200065281604051602401620005c9919062000844565b6040516020818303038152906040527f41304fac000000000000000000000000000000000000000000000000000000007bffffffffffffffffffffffffffffffffffffffffffffffffffffffff19166020820180517bffffffffffffffffffffffffffffffffffffffffffffffffffffffff83818316178352505050506200065560201b60201c565b50565b60008151905060006a636f6e736f6c652e6c6f679050602083016000808483855afa5050505050565b8280546200068c90620008ba565b90600052602060002090601f016020900481019282620006b05760008555620006fc565b82601f10620006cb57805160ff1916838001178555620006fc565b82800160010185558215620006fc579182015b82811115620006fb578251825591602001919060010190620006de565b5b5090506200070b919062000776565b5090565b82805482825590600052602060002090810192821562000763579160200282015b8281111562000762578251829080519060200190620007519291906200067e565b509160200191906001019062000730565b5b50905062000772919062000795565b5090565b5b808211156200079157600081600090555060010162000777565b5090565b5b80821115620007b95760008181620007af9190620007bd565b5060010162000796565b5090565b508054620007cb90620008ba565b6000825580601f10620007df575062000800565b601f016020900490600052602060002090810190620007ff919062000776565b5b50565b6000620008108262000868565b6200081c818562000873565b93506200082e81856020860162000884565b62000839816200091f565b840191505092915050565b6000602082019050818103600083015262000860818462000803565b905092915050565b600081519050919050565b600082825260208201905092915050565b60005b83811015620008a457808201518184015260208101905062000887565b83811115620008b4576000848401525b50505050565b60006002820490506001821680620008d357607f821691505b60208210811415620008ea57620008e9620008f0565b5b50919050565b7f4e487b7100000000000000000000000000000000000000000000000000000000600052602260045260246000fd5b6000601f19601f8301169050919050565b61388f80620009406000396000f3fe608060405234801561001057600080fd5b506004361061010b5760003560e01c80636352211e116100a2578063b187301f11610071578063b187301f146102b6578063b88d4fde146102e6578063c575757a14610302578063c87b56dd14610332578063e985e9c5146103625761010b565b80636352211e1461021c57806370a082311461024c57806395d89b411461027c578063a22cb4651461029a5761010b565b806323b872dd116100de57806323b872dd146101aa5780632de38d68146101c6578063340e1bed146101f657806342842e0e146102005761010b565b806301ffc9a71461011057806306fdde0314610140578063081812fc1461015e578063095ea7b31461018e575b600080fd5b61012a600480360381019061012591906126c6565b610392565b6040516101379190612d35565b60405180910390f35b610148610474565b6040516101559190612d50565b60405180910390f35b61017860048036038101906101739190612718565b610506565b6040516101859190612cce565b60405180910390f35b6101a860048036038101906101a3919061268a565b61054c565b005b6101c460048036038101906101bf9190612584565b610664565b005b6101e060048036038101906101db9190612718565b6106c4565b6040516101ed9190612d50565b60405180910390f35b6101fe6107e2565b005b61021a60048036038101906102159190612584565b610971565b005b61023660048036038101906102319190612718565b610991565b6040516102439190612cce565b60405180910390f35b6102666004803603810190610261919061251f565b610a18565b6040516102739190612ef2565b60405180910390f35b610284610ad0565b6040516102919190612d50565b60405180910390f35b6102b460048036038101906102af919061264e565b610b62565b005b6102d060048036038101906102cb9190612718565b610b78565b6040516102dd9190612d50565b60405180910390f35b61030060048036038101906102fb91906125d3565b610c96565b005b61031c60048036038101906103179190612718565b610cf8565b6040516103299190612d50565b60405180910390f35b61034c60048036038101906103479190612718565b610e16565b6040516103599190612d50565b60405180910390f35b61037c60048036038101906103779190612548565b610f29565b6040516103899190612d35565b60405180910390f35b60007f80ac58cd000000000000000000000000000000000000000000000000000000007bffffffffffffffffffffffffffffffffffffffffffffffffffffffff1916827bffffffffffffffffffffffffffffffffffffffffffffffffffffffff1916148061045d57507f5b5e139f000000000000000000000000000000000000000000000000000000007bffffffffffffffffffffffffffffffffffffffffffffffffffffffff1916827bffffffffffffffffffffffffffffffffffffffffffffffffffffffff1916145b8061046d575061046c82611056565b5b9050919050565b60606000805461048390613186565b80601f01602080910402602001604051908101604052809291908181526020018280546104af90613186565b80156104fc5780601f106104d1576101008083540402835291602001916104fc565b820191906000526020600020905b8154815290600101906020018083116104df57829003601f168201915b5050505050905090565b6000610511826110c0565b6004600083815260200190815260200160002060009054906101000a900473ffffffffffffffffffffffffffffffffffffffff169050919050565b600061055782610991565b90508073ffffffffffffffffffffffffffffffffffffffff168373ffffffffffffffffffffffffffffffffffffffff1614156105c8576040517f08c379a00000000000000000000000000000000000000000000000000000000081526004016105bf90612eb2565b60405180910390fd5b8073ffffffffffffffffffffffffffffffffffffffff166105e761110b565b73ffffffffffffffffffffffffffffffffffffffff16148061061657506106158161061061110b565b610f29565b5b610655576040517f08c379a000000000000000000000000000000000000000000000000000000000815260040161064c90612ed2565b60405180910390fd5b61065f8383611113565b505050565b61067561066f61110b565b826111cc565b6106b4576040517f08c379a00000000000000000000000000000000000000000000000000000000081526004016106ab90612d72565b60405180910390fd5b6106bf838383611261565b505050565b606060006106f86106d48461155b565b6040516020016106e49190612c8a565b60405160208183030381529060405261167f565b90506009805490508161070b91906131e9565b905060098181548110610747577f4e487b7100000000000000000000000000000000000000000000000000000000600052603260045260246000fd5b90600052602060002001805461075c90613186565b80601f016020809104026020016040519081016040528092919081815260200182805461078890613186565b80156107d55780601f106107aa576101008083540402835291602001916107d5565b820191906000526020600020905b8154815290600101906020018083116107b857829003601f168201915b5050505050915050919050565b60006107ee60076116b2565b905060006107fb826106c4565b9050600061080883610b78565b9050600061081584610cf8565b9050600083838360405160200161082e93929190612b87565b6040516020818303038152906040529050600060088585856040516020016108599493929190612bb8565b60405160208183030381529060405290506108a86040518060400160405280602081526020017f0a3d3d3d3d3d3d3d3d3d3d3d3d3d3d3d3d3d3d3d3d3d3d3d3d3d3d3d3d3d3d0a815250610fbd565b6108b181610fbd565b6108ef6040518060400160405280602081526020017f0a3d3d3d3d3d3d3d3d3d3d3d3d3d3d3d3d3d3d3d3d3d3d3d3d3d3d3d3d3d3d0a815250610fbd565b6000610923836108fe846116c0565b60405160200161090f929190612c45565b6040516020818303038152906040526116c0565b90506000816040516020016109389190612cac565b6040516020818303038152906040529050610953338961187e565b61095d888261189c565b6109676007611910565b5050505050505050565b61098c83838360405180602001604052806000815250610c96565b505050565b60008061099d83611926565b9050600073ffffffffffffffffffffffffffffffffffffffff168173ffffffffffffffffffffffffffffffffffffffff161415610a0f576040517f08c379a0000000000000000000000000000000000000000000000000000000008152600401610a0690612e92565b60405180910390fd5b80915050919050565b60008073ffffffffffffffffffffffffffffffffffffffff168273ffffffffffffffffffffffffffffffffffffffff161415610a89576040517f08c379a0000000000000000000000000000000000000000000000000000000008152600401610a8090612e32565b60405180910390fd5b600360008373ffffffffffffffffffffffffffffffffffffffff1673ffffffffffffffffffffffffffffffffffffffff168152602001908152602001600020549050919050565b606060018054610adf90613186565b80601f0160208091040260200160405190810160405280929190818152602001828054610b0b90613186565b8015610b585780601f10610b2d57610100808354040283529160200191610b58565b820191906000526020600020905b815481529060010190602001808311610b3b57829003601f168201915b5050505050905090565b610b74610b6d61110b565b8383611963565b5050565b60606000610bac610b888461155b565b604051602001610b989190612c23565b60405160208183030381529060405261167f565b9050600a8054905081610bbf91906131e9565b9050600a8181548110610bfb577f4e487b7100000000000000000000000000000000000000000000000000000000600052603260045260246000fd5b906000526020600020018054610c1090613186565b80601f0160208091040260200160405190810160405280929190818152602001828054610c3c90613186565b8015610c895780601f10610c5e57610100808354040283529160200191610c89565b820191906000526020600020905b815481529060010190602001808311610c6c57829003601f168201915b5050505050915050919050565b610ca7610ca161110b565b836111cc565b610ce6576040517f08c379a0000000000000000000000000000000000000000000000000000000008152600401610cdd90612d72565b60405180910390fd5b610cf284848484611ad0565b50505050565b60606000610d2c610d088461155b565b604051602001610d189190612c01565b60405160208183030381529060405261167f565b9050600b8054905081610d3f91906131e9565b9050600b8181548110610d7b577f4e487b7100000000000000000000000000000000000000000000000000000000600052603260045260246000fd5b906000526020600020018054610d9090613186565b80601f0160208091040260200160405190810160405280929190818152602001828054610dbc90613186565b8015610e095780601f10610dde57610100808354040283529160200191610e09565b820191906000526020600020905b815481529060010190602001808311610dec57829003601f168201915b5050505050915050919050565b6060610e21826110c0565b6000600660008481526020019081526020016000208054610e4190613186565b80601f0160208091040260200160405190810160405280929190818152602001828054610e6d90613186565b8015610eba5780601f10610e8f57610100808354040283529160200191610eba565b820191906000526020600020905b815481529060010190602001808311610e9d57829003601f168201915b505050505090506000610ecb611b2c565b9050600081511415610ee1578192505050610f24565b600082511115610f16578082604051602001610efe929190612b63565b60405160208183030381529060405292505050610f24565b610f1f84611b43565b925050505b919050565b6000600560008473ffffffffffffffffffffffffffffffffffffffff1673ffffffffffffffffffffffffffffffffffffffff16815260200190815260200160002060008373ffffffffffffffffffffffffffffffffffffffff1673ffffffffffffffffffffffffffffffffffffffff16815260200190815260200160002060009054906101000a900460ff16905092915050565b61105381604051602401610fd19190612d50565b6040516020818303038152906040527f41304fac000000000000000000000000000000000000000000000000000000007bffffffffffffffffffffffffffffffffffffffffffffffffffffffff19166020820180517bffffffffffffffffffffffffffffffffffffffffffffffffffffffff8381831617835250505050611bab565b50565b60007f01ffc9a7000000000000000000000000000000000000000000000000000000007bffffffffffffffffffffffffffffffffffffffffffffffffffffffff1916827bffffffffffffffffffffffffffffffffffffffffffffffffffffffff1916149050919050565b6110c981611bd4565b611108576040517f08c379a00000000000000000000000000000000000000000000000000000000081526004016110ff90612e92565b60405180910390fd5b50565b600033905090565b816004600083815260200190815260200160002060006101000a81548173ffffffffffffffffffffffffffffffffffffffff021916908373ffffffffffffffffffffffffffffffffffffffff160217905550808273ffffffffffffffffffffffffffffffffffffffff1661118683610991565b73ffffffffffffffffffffffffffffffffffffffff167f8c5be1e5ebec7d5bd14f71427d1e84f3dd0314c0f7b2291e5b200ac8c7c3b92560405160405180910390a45050565b6000806111d883610991565b90508073ffffffffffffffffffffffffffffffffffffffff168473ffffffffffffffffffffffffffffffffffffffff16148061121a57506112198185610f29565b5b8061125857508373ffffffffffffffffffffffffffffffffffffffff1661124084610506565b73ffffffffffffffffffffffffffffffffffffffff16145b91505092915050565b8273ffffffffffffffffffffffffffffffffffffffff1661128182610991565b73ffffffffffffffffffffffffffffffffffffffff16146112d7576040517f08c379a00000000000000000000000000000000000000000000000000000000081526004016112ce90612db2565b60405180910390fd5b600073ffffffffffffffffffffffffffffffffffffffff168273ffffffffffffffffffffffffffffffffffffffff161415611347576040517f08c379a000000000000000000000000000000000000000000000000000000000815260040161133e90612df2565b60405180910390fd5b6113548383836001611c15565b8273ffffffffffffffffffffffffffffffffffffffff1661137482610991565b73ffffffffffffffffffffffffffffffffffffffff16146113ca576040517f08c379a00000000000000000000000000000000000000000000000000000000081526004016113c190612db2565b60405180910390fd5b6004600082815260200190815260200160002060006101000a81549073ffffffffffffffffffffffffffffffffffffffff02191690556001600360008573ffffffffffffffffffffffffffffffffffffffff1673ffffffffffffffffffffffffffffffffffffffff168152602001908152602001600020600082825403925050819055506001600360008473ffffffffffffffffffffffffffffffffffffffff1673ffffffffffffffffffffffffffffffffffffffff16815260200190815260200160002060008282540192505081905550816002600083815260200190815260200160002060006101000a81548173ffffffffffffffffffffffffffffffffffffffff021916908373ffffffffffffffffffffffffffffffffffffffff160217905550808273ffffffffffffffffffffffffffffffffffffffff168473ffffffffffffffffffffffffffffffffffffffff167fddf252ad1be2c89b69c2b068fc378daa952ba7f163c4a11628f55a4df523b3ef60405160405180910390a46115568383836001611d3b565b505050565b60606000600161156a84611d41565b01905060008167ffffffffffffffff8111156115af577f4e487b7100000000000000000000000000000000000000000000000000000000600052604160045260246000fd5b6040519080825280601f01601f1916602001820160405280156115e15781602001600182028036833780820191505090505b509050600082602001820190505b600115611674578080600190039150507f3031323334353637383961626364656600000000000000000000000000000000600a86061a8153600a858161165e577f4e487b7100000000000000000000000000000000000000000000000000000000600052601260045260246000fd5b049450600085141561166f57611674565b6115ef565b819350505050919050565b6000816040516020016116929190612b4c565b6040516020818303038152906040528051906020012060001c9050919050565b600081600001549050919050565b606060008251905060008114156116e95760405180602001604052806000815250915050611879565b600060036002836116fa9190612fbb565b6117049190613011565b60046117109190613042565b905060006020826117219190612fbb565b67ffffffffffffffff811115611760577f4e487b7100000000000000000000000000000000000000000000000000000000600052604160045260246000fd5b6040519080825280601f01601f1916602001820160405280156117925781602001600182028036833780820191505090505b509050600060405180606001604052806040815260200161381a604091399050600181016020830160005b868110156118365760038101905062ffffff818a015116603f8160121c168401518060081b905060ff603f83600c1c1686015116810190508060081b905060ff603f8360061c1686015116810190508060081b905060ff603f831686015116810190508060e01b905080845260048401935050506117bd565b50600386066001811461185057600281146118605761186b565b613d3d60f01b600283035261186b565b603d60f81b60018303525b508484525050819450505050505b919050565b611898828260405180602001604052806000815250611f78565b5050565b6118a582611bd4565b6118e4576040517f08c379a00000000000000000000000000000000000000000000000000000000081526004016118db90612e52565b60405180910390fd5b8060066000848152602001908152602001600020908051906020019061190b9291906123ab565b505050565b6001816000016000828254019250508190555050565b60006002600083815260200190815260200160002060009054906101000a900473ffffffffffffffffffffffffffffffffffffffff169050919050565b8173ffffffffffffffffffffffffffffffffffffffff168373ffffffffffffffffffffffffffffffffffffffff1614156119d2576040517f08c379a00000000000000000000000000000000000000000000000000000000081526004016119c990612e12565b60405180910390fd5b80600560008573ffffffffffffffffffffffffffffffffffffffff1673ffffffffffffffffffffffffffffffffffffffff16815260200190815260200160002060008473ffffffffffffffffffffffffffffffffffffffff1673ffffffffffffffffffffffffffffffffffffffff16815260200190815260200160002060006101000a81548160ff0219169083151502179055508173ffffffffffffffffffffffffffffffffffffffff168373ffffffffffffffffffffffffffffffffffffffff167f17307eab39ab6107e8899845ad3d59bd9653f200f220920489ca2b5937696c3183604051611ac39190612d35565b60405180910390a3505050565b611adb848484611261565b611ae784848484611fd3565b611b26576040517f08c379a0000000000000000000000000000000000000000000000000000000008152600401611b1d90612d92565b60405180910390fd5b50505050565b606060405180602001604052806000815250905090565b6060611b4e826110c0565b6000611b58611b2c565b90506000815111611b785760405180602001604052806000815250611ba3565b80611b828461155b565b604051602001611b93929190612b63565b6040516020818303038152906040525b915050919050565b60008151905060006a636f6e736f6c652e6c6f679050602083016000808483855afa5050505050565b60008073ffffffffffffffffffffffffffffffffffffffff16611bf683611926565b73ffffffffffffffffffffffffffffffffffffffff1614159050919050565b6001811115611d3557600073ffffffffffffffffffffffffffffffffffffffff168473ffffffffffffffffffffffffffffffffffffffff1614611ca95780600360008673ffffffffffffffffffffffffffffffffffffffff1673ffffffffffffffffffffffffffffffffffffffff1681526020019081526020016000206000828254611ca1919061309c565b925050819055505b600073ffffffffffffffffffffffffffffffffffffffff168373ffffffffffffffffffffffffffffffffffffffff1614611d345780600360008573ffffffffffffffffffffffffffffffffffffffff1673ffffffffffffffffffffffffffffffffffffffff1681526020019081526020016000206000828254611d2c9190612fbb565b925050819055505b5b50505050565b50505050565b600080600090507a184f03e93ff9f4daa797ed6e38ed64bf6a1f0100000000000000008310611dc5577a184f03e93ff9f4daa797ed6e38ed64bf6a1f0100000000000000008381611dbb577f4e487b7100000000000000000000000000000000000000000000000000000000600052601260045260246000fd5b0492506040810190505b6d04ee2d6d415b85acef81000000008310611e28576d04ee2d6d415b85acef81000000008381611e1e577f4e487b7100000000000000000000000000000000000000000000000000000000600052601260045260246000fd5b0492506020810190505b662386f26fc100008310611e7d57662386f26fc100008381611e73577f4e487b7100000000000000000000000000000000000000000000000000000000600052601260045260246000fd5b0492506010810190505b6305f5e1008310611ecc576305f5e1008381611ec2577f4e487b7100000000000000000000000000000000000000000000000000000000600052601260045260246000fd5b0492506008810190505b6127108310611f17576127108381611f0d577f4e487b7100000000000000000000000000000000000000000000000000000000600052601260045260246000fd5b0492506004810190505b60648310611f605760648381611f56577f4e487b7100000000000000000000000000000000000000000000000000000000600052601260045260246000fd5b0492506002810190505b600a8310611f6f576001810190505b80915050919050565b611f82838361216a565b611f8f6000848484611fd3565b611fce576040517f08c379a0000000000000000000000000000000000000000000000000000000008152600401611fc590612d92565b60405180910390fd5b505050565b6000611ff48473ffffffffffffffffffffffffffffffffffffffff16612388565b1561215d578373ffffffffffffffffffffffffffffffffffffffff1663150b7a0261201d61110b565b8786866040518563ffffffff1660e01b815260040161203f9493929190612ce9565b602060405180830381600087803b15801561205957600080fd5b505af192505050801561208a57506040513d601f19601f8201168201806040525081019061208791906126ef565b60015b61210d573d80600081146120ba576040519150601f19603f3d011682016040523d82523d6000602084013e6120bf565b606091505b50600081511415612105576040517f08c379a00000000000000000000000000000000000000000000000000000000081526004016120fc90612d92565b60405180910390fd5b805181602001fd5b63150b7a0260e01b7bffffffffffffffffffffffffffffffffffffffffffffffffffffffff1916817bffffffffffffffffffffffffffffffffffffffffffffffffffffffff191614915050612162565b600190505b949350505050565b600073ffffffffffffffffffffffffffffffffffffffff168273ffffffffffffffffffffffffffffffffffffffff1614156121da576040517f08c379a00000000000000000000000000000000000000000000000000000000081526004016121d190612e72565b60405180910390fd5b6121e381611bd4565b15612223576040517f08c379a000000000000000000000000000000000000000000000000000000000815260040161221a90612dd2565b60405180910390fd5b612231600083836001611c15565b61223a81611bd4565b1561227a576040517f08c379a000000000000000000000000000000000000000000000000000000000815260040161227190612dd2565b60405180910390fd5b6001600360008473ffffffffffffffffffffffffffffffffffffffff1673ffffffffffffffffffffffffffffffffffffffff16815260200190815260200160002060008282540192505081905550816002600083815260200190815260200160002060006101000a81548173ffffffffffffffffffffffffffffffffffffffff021916908373ffffffffffffffffffffffffffffffffffffffff160217905550808273ffffffffffffffffffffffffffffffffffffffff16600073ffffffffffffffffffffffffffffffffffffffff167fddf252ad1be2c89b69c2b068fc378daa952ba7f163c4a11628f55a4df523b3ef60405160405180910390a4612384600083836001611d3b565b5050565b6000808273ffffffffffffffffffffffffffffffffffffffff163b119050919050565b8280546123b790613186565b90600052602060002090601f0160209004810192826123d95760008555612420565b82601f106123f257805160ff1916838001178555612420565b82800160010185558215612420579182015b8281111561241f578251825591602001919060010190612404565b5b50905061242d9190612431565b5090565b5b8082111561244a576000816000905550600101612432565b5090565b600061246161245c84612f32565b612f0d565b90508281526020810184848401111561247957600080fd5b612484848285613144565b509392505050565b60008135905061249b816137bd565b92915050565b6000813590506124b0816137d4565b92915050565b6000813590506124c5816137eb565b92915050565b6000815190506124da816137eb565b92915050565b600082601f8301126124f157600080fd5b813561250184826020860161244e565b91505092915050565b60008135905061251981613802565b92915050565b60006020828403121561253157600080fd5b600061253f8482850161248c565b91505092915050565b6000806040838503121561255b57600080fd5b60006125698582860161248c565b925050602061257a8582860161248c565b9150509250929050565b60008060006060848603121561259957600080fd5b60006125a78682870161248c565b93505060206125b88682870161248c565b92505060406125c98682870161250a565b9150509250925092565b600080600080608085870312156125e957600080fd5b60006125f78782880161248c565b94505060206126088782880161248c565b93505060406126198782880161250a565b925050606085013567ffffffffffffffff81111561263657600080fd5b612642878288016124e0565b91505092959194509250565b6000806040838503121561266157600080fd5b600061266f8582860161248c565b9250506020612680858286016124a1565b9150509250929050565b6000806040838503121561269d57600080fd5b60006126ab8582860161248c565b92505060206126bc8582860161250a565b9150509250929050565b6000602082840312156126d857600080fd5b60006126e6848285016124b6565b91505092915050565b60006020828403121561270157600080fd5b600061270f848285016124cb565b91505092915050565b60006020828403121561272a57600080fd5b60006127388482850161250a565b91505092915050565b61274a816130d0565b82525050565b612759816130e2565b82525050565b600061276a82612f78565b6127748185612f8e565b9350612784818560208601613153565b61278d816132d6565b840191505092915050565b60006127a382612f83565b6127ad8185612f9f565b93506127bd818560208601613153565b6127c6816132d6565b840191505092915050565b60006127dc82612f83565b6127e68185612fb0565b93506127f6818560208601613153565b80840191505092915050565b6000815461280f81613186565b6128198186612fb0565b94506001821660008114612834576001811461284557612878565b60ff19831686528186019350612878565b61284e85612f63565b60005b8381101561287057815481890152600182019150602081019050612851565b838801955050505b50505092915050565b600061288e602d83612f9f565b9150612899826132e7565b604082019050919050565b60006128b1603283612f9f565b91506128bc82613336565b604082019050919050565b60006128d4602583612f9f565b91506128df82613385565b604082019050919050565b60006128f7601c83612f9f565b9150612902826133d4565b602082019050919050565b600061291a600a83612fb0565b9150612925826133fd565b600a82019050919050565b600061293d602483612f9f565b915061294882613426565b604082019050919050565b6000612960601983612f9f565b915061296b82613475565b602082019050919050565b6000612983606383612fb0565b915061298e8261349e565b606382019050919050565b60006129a6600b83612fb0565b91506129b182613539565b600b82019050919050565b60006129c9600d83612fb0565b91506129d482613562565b600d82019050919050565b60006129ec602983612f9f565b91506129f78261358b565b604082019050919050565b6000612a0f602e83612f9f565b9150612a1a826135da565b604082019050919050565b6000612a32600283612fb0565b9150612a3d82613629565b600282019050919050565b6000612a55602083612f9f565b9150612a6082613652565b602082019050919050565b6000612a78600a83612fb0565b9150612a838261367b565b600a82019050919050565b6000612a9b601883612f9f565b9150612aa6826136a4565b602082019050919050565b6000612abe602183612f9f565b9150612ac9826136cd565b604082019050919050565b6000612ae1600a83612fb0565b9150612aec8261371c565b600a82019050919050565b6000612b04601d83612fb0565b9150612b0f82613745565b601d82019050919050565b6000612b27603d83612f9f565b9150612b328261376e565b604082019050919050565b612b468161313a565b82525050565b6000612b5882846127d1565b915081905092915050565b6000612b6f82856127d1565b9150612b7b82846127d1565b91508190509392505050565b6000612b9382866127d1565b9150612b9f82856127d1565b9150612bab82846127d1565b9150819050949350505050565b6000612bc48287612802565b9150612bd082866127d1565b9150612bdc82856127d1565b9150612be882846127d1565b9150612bf3826129bc565b915081905095945050505050565b6000612c0c8261290d565b9150612c1882846127d1565b915081905092915050565b6000612c2e82612999565b9150612c3a82846127d1565b915081905092915050565b6000612c5082612a6b565b9150612c5c82856127d1565b9150612c6782612976565b9150612c7382846127d1565b9150612c7e82612a25565b91508190509392505050565b6000612c9582612ad4565b9150612ca182846127d1565b915081905092915050565b6000612cb782612af7565b9150612cc382846127d1565b915081905092915050565b6000602082019050612ce36000830184612741565b92915050565b6000608082019050612cfe6000830187612741565b612d0b6020830186612741565b612d186040830185612b3d565b8181036060830152612d2a818461275f565b905095945050505050565b6000602082019050612d4a6000830184612750565b92915050565b60006020820190508181036000830152612d6a8184612798565b905092915050565b60006020820190508181036000830152612d8b81612881565b9050919050565b60006020820190508181036000830152612dab816128a4565b9050919050565b60006020820190508181036000830152612dcb816128c7565b9050919050565b60006020820190508181036000830152612deb816128ea565b9050919050565b60006020820190508181036000830152612e0b81612930565b9050919050565b60006020820190508181036000830152612e2b81612953565b9050919050565b60006020820190508181036000830152612e4b816129df565b9050919050565b60006020820190508181036000830152612e6b81612a02565b9050919050565b60006020820190508181036000830152612e8b81612a48565b9050919050565b60006020820190508181036000830152612eab81612a8e565b9050919050565b60006020820190508181036000830152612ecb81612ab1565b9050919050565b60006020820190508181036000830152612eeb81612b1a565b9050919050565b6000602082019050612f076000830184612b3d565b92915050565b6000612f17612f28565b9050612f2382826131b8565b919050565b6000604051905090565b600067ffffffffffffffff821115612f4d57612f4c6132a7565b5b612f56826132d6565b9050602081019050919050565b60008190508160005260206000209050919050565b600081519050919050565b600081519050919050565b600082825260208201905092915050565b600082825260208201905092915050565b600081905092915050565b6000612fc68261313a565b9150612fd18361313a565b9250827fffffffffffffffffffffffffffffffffffffffffffffffffffffffffffffffff038211156130065761300561321a565b5b828201905092915050565b600061301c8261313a565b91506130278361313a565b92508261303757613036613249565b5b828204905092915050565b600061304d8261313a565b91506130588361313a565b9250817fffffffffffffffffffffffffffffffffffffffffffffffffffffffffffffffff04831182151516156130915761309061321a565b5b828202905092915050565b60006130a78261313a565b91506130b28361313a565b9250828210156130c5576130c461321a565b5b828203905092915050565b60006130db8261311a565b9050919050565b60008115159050919050565b60007fffffffff0000000000000000000000000000000000000000000000000000000082169050919050565b600073ffffffffffffffffffffffffffffffffffffffff82169050919050565b6000819050919050565b82818337600083830152505050565b60005b83811015613171578082015181840152602081019050613156565b83811115613180576000848401525b50505050565b6000600282049050600182168061319e57607f821691505b602082108114156131b2576131b1613278565b5b50919050565b6131c1826132d6565b810181811067ffffffffffffffff821117156131e0576131df6132a7565b5b80604052505050565b60006131f48261313a565b91506131ff8361313a565b92508261320f5761320e613249565b5b828206905092915050565b7f4e487b7100000000000000000000000000000000000000000000000000000000600052601160045260246000fd5b7f4e487b7100000000000000000000000000000000000000000000000000000000600052601260045260246000fd5b7f4e487b7100000000000000000000000000000000000000000000000000000000600052602260045260246000fd5b7f4e487b7100000000000000000000000000000000000000000000000000000000600052604160045260246000fd5b6000601f19601f8301169050919050565b7f4552433732313a2063616c6c6572206973206e6f7420746f6b656e206f776e6560008201527f72206f7220617070726f76656400000000000000000000000000000000000000602082015250565b7f4552433732313a207472616e7366657220746f206e6f6e20455243373231526560008201527f63656976657220696d706c656d656e7465720000000000000000000000000000602082015250565b7f4552433732313a207472616e736665722066726f6d20696e636f72726563742060008201527f6f776e6572000000000000000000000000000000000000000000000000000000602082015250565b7f4552433732313a20746f6b656e20616c7265616479206d696e74656400000000600082015250565b7f54484952445f574f524400000000000000000000000000000000000000000000600082015250565b7f4552433732313a207472616e7366657220746f20746865207a65726f2061646460008201527f7265737300000000000000000000000000000000000000000000000000000000602082015250565b7f4552433732313a20617070726f766520746f2063616c6c657200000000000000600082015250565b7f222c20226465736372697074696f6e223a20224120686967686c79206163636c60008201527f61696d656420636f6c6c656374696f6e206f6620737175617265732e222c202260208201527f696d616765223a2022646174613a696d6167652f7376672b786d6c3b6261736560408201527f36342c0000000000000000000000000000000000000000000000000000000000606082015250565b7f5345434f4e445f574f5244000000000000000000000000000000000000000000600082015250565b7f3c2f746578743e3c2f7376673e00000000000000000000000000000000000000600082015250565b7f4552433732313a2061646472657373207a65726f206973206e6f74206120766160008201527f6c6964206f776e65720000000000000000000000000000000000000000000000602082015250565b7f45524337323155524953746f726167653a2055524920736574206f66206e6f6e60008201527f6578697374656e7420746f6b656e000000000000000000000000000000000000602082015250565b7f227d000000000000000000000000000000000000000000000000000000000000600082015250565b7f4552433732313a206d696e7420746f20746865207a65726f2061646472657373600082015250565b7f7b226e616d65223a202200000000000000000000000000000000000000000000600082015250565b7f4552433732313a20696e76616c696420746f6b656e2049440000000000000000600082015250565b7f4552433732313a20617070726f76616c20746f2063757272656e74206f776e6560008201527f7200000000000000000000000000000000000000000000000000000000000000602082015250565b7f46495253545f574f524400000000000000000000000000000000000000000000600082015250565b7f646174613a6170706c69636174696f6e2f6a736f6e3b6261736536342c000000600082015250565b7f4552433732313a20617070726f76652063616c6c6572206973206e6f7420746f60008201527f6b656e206f776e6572206f7220617070726f76656420666f7220616c6c000000602082015250565b6137c6816130d0565b81146137d157600080fd5b50565b6137dd816130e2565b81146137e857600080fd5b50565b6137f4816130ee565b81146137ff57600080fd5b50565b61380b8161313a565b811461381657600080fd5b5056fe4142434445464748494a4b4c4d4e4f505152535455565758595a6162636465666768696a6b6c6d6e6f707172737475767778797a303132333435363738392b2fa2646970667358221220d00bc54b7821b2754ca3af7fdabb7698fa4cd830cce27551fa2e67ec04fd946064736f6c634300080100333c73766720786d6c6e733d27687474703a2f2f7777772e77332e6f72672f323030302f73766727207072657365727665417370656374526174696f3d27784d696e594d696e206d656574272076696577426f783d273020302033353020333530273e3c7374796c653e2e62617365207b2066696c6c3a2077686974653b20666f6e742d66616d696c793a2073657269663b20666f6e742d73697a653a20323470783b207d3c2f7374796c653e3c726563742077696474683d273130302527206865696768743d2731303025272066696c6c3d27626c61636b27202f3e3c7465787420783d273530252720793d273530252720636c6173733d27626173652720646f6d696e616e742d626173656c696e653d276d6964646c652720746578742d616e63686f723d276d6964646c65273e",
    "linkReferences": {},
    "deployedLinkReferences": {}
}